:0D091F000534000C080800013904013A00FD
:1008AE00E4FDFCC3ED9FEC9E5015E4FBFA0BBB0080
:0F08BE00010AEB64FA4A70F50DBD00010C80E4ED
:0108CD002208
:10088C007E08EED39400748094804015EF30E7041A
:10089C00D2918002C291C290D290EF25E0FF1E80CF
:0108AC00E16A
:0108AD002228
:0A092D00C294C29312088CD29422E7
:0508FF0012092D7F012C
:0C090400E4F528C294D29312088CD2941F
:0109100022C4
:0408E700AD07AC06A7
:1008EB00E4F520C294D293AF0412088CAF05120822
:0308FB008CD29408
:0108FE0022D7
:0E091100C2927F647E001208AED2920208AE3F
:100211001209117F1112092D7F787E001208AE7F1D
:10022100B11208FF7F2C1209047F2D1209047FB23D
:100231001208FF7F2C1209047F2D1209047FB312CB
:1002410008FF7F2C1209047F2D1209047F01120976
:10025100047F2C1209047F2D1209047FB412092D89
:100261007F071209047FC012092D7FA21209047FA2
:10027100021209047F841209047FC112092D7FC56E
:100281001209047FC212092D7F0A120904E4FF1228
:1002910009047FC312092D7F8A1209047F2A1209DA
:1002A100047FC412092D7F8A1209047FEE1209040A
:1002B1007FC512092D7F0E1209047F3612092D7F89
:1002C100C01209047FE012092D7F0F1209047F1A61
:1002D1001209047F0F1209047F181209047F2F12DB
:1002E10009047F281209047F201209047F221209C0
:1002F100047F1F1209047F1B1209047F23120904C2
:100301007F37120904E4FF1209047F071209047FF1
:10031100021209047F101209047FE112092D7F0FD7
:100321001209047F1B1209047F0F1209047F17129F
:1003310009047F331209047F2C1209047F29120951
:10034100047F2E1209047F301209047F3012090440
:100351007F391209047F3F120904E4FF1209047F67
:10036100071209047F031209047F101209047F2A6E
:1003710012092DE4FF1209047F02120904E4FF129D
:1003810009047F821209047F2B12092DE4FF12094F
:10039100047F03120904E4FF1209047F8312090494
:1003A1007FF01208FF7FF612092DE4FF1209047F86
:0E03B1003A12092D7F051209047F2902092D39
:100813008F827F2A1208FFAF82EF2402FF1209049E
:100823007F01120904EB2402FF1209047F2B120932
:100833002D7F02120904ED04FF1209047F0212093D
:0D08430004E52704FF1209047F2C02092D93
:040850008E098F0A74
:1008540075260075279F7B7F7A00E4FDFCFFFE125E
:100864000813E4FBEBC394A0748094805019E4FA59
:10087400EAC3948074809480500AAF0AAE091208C7
:07088400E70A80EC0B80DDA8
:01088B00224A
:10049E008F458D468B477E00C3EF94807480948089
:1004AE00400302055A7C00C3ED94A07480948040F2
:1004BE000302055AEF2BFFEE33CF24FFCF34FFFE9E
:1004CE00C3EF9480EE64809480400674809545F569
:1004DE00477E00ED2548FFEE3CCF24FFCF34FFFED4
:1004EE00C3EF94A0EE64809480400674A09546F508
:1004FE0048AF457E00C007E546FD7C00E545254733
:10050E00FFE433CF24FFFBEF34FFFAE5462548FF27
:10051E00E433CF24FFF527EF34FFF526D00712087A
:10052E0013854846D3E546940074809480401D851B
:10053E004745D3E545940074809480400BAF4AAE96
:0D054E00491208E7154580EA154680D822BD
:0807CB008F1D8A1E8B1FA9057A
:1007D300E51D75F008A4F51DE975F008A4F9AF1D32
:1007E3007E00FD7C00E51D2407FBE433FAE92407C2
:1007F300F527E433F5261208137B40EBD3940074FA
:0F080300809480400AAF1FAE1E1208E71B80ECE6
:0108120022C3
:0806FC008F3B8D3C8A3D8B3ED3
:10070400E4F542C3E5429404748094805051E53E7C
:10071400540FF541E53DC4F854F0C868F53DE53E95
:10072400C4540F48F53E754308E4F544C3E54494C6
:1007340004748094805024E54155436014E53B25BE
:1007440044FFE53C2403C39542FDAB40AA3F120796
:0F075400CBE543C313F543054480D1054280A490
:010763002273
:04055B008F09A90556
:10055F007D287C00E975F002A42DFDE5F03CFCE45C
:10056F00FBEBC3940674809480502B8D828C83C3D5
:10057F0074099509FFE0FEA3E0A807088005CEC324
:10058F0013CE13D8F9FF74292BF8A60774022DFD8B
:10059F00E43CFC0B80CB7C007D00E975F002A42DC0
:1005AF00FDE5F03CFCE4FBEBC394067480948050B3
:1005BF002B8D828C83C374099509FFE0FEA3E0A8FD
:1005CF0007088005CEC313CE13D8F9FF742F2BF86D
:0C05DF00A60774022DFDE43CFC0B80CB51
:0105EB0022ED
:02076400A907E3
:10076600750900750A28ED75F002A4AEF0250AF5A4
:100776000AEE3509F509E4FDEDC39406748094800C
:10078600504274292DF8E6FF7E00C3740999FCEFE8
:10079600A804088005C333CE33CED8F9FF850A8274
:1007A600850983C083C082E04EFBA3E04FD082D090
:1007B60083CBF0A3EBF07402250AF50AE43509F5BC
:0407C600090D80B4E5
:0107CA00220C
:080678008B1D8A1E891FAC07CF
:10068000752000752100ED2402FFE433FEEF25E024
:10069000FFEE33FEEF2521F521EE3520F520E4FDB8
:1006A000EDC39406748094805051AB1DAA1EA91FFF
:1006B0001208CEFF7E00C374099CFBEFA8030880DC
:1006C00005C333CE33CED8F9FF852182852083C080
:1006D00083C082E04EFBA3E04FD082D083CBF0A357
:1006E000EBF07401251FF51FE4351EF51E7402257D
:0B06F00021F521E43520F5200D80A548
:0106FB0022DC
:060003008F098D0A8B0B32
:10000900751A29751B0EE4F50CAF0CEF3395E0FE5C
:10001900C3EF9406EE648094805013AF1A051AA8B2
:1000290007E6FF740E250CF8A607050C80DBE4F53E
:100039000CAF0CEF3395E0FEC3EF9406EE648094A9
:1000490080500A74292FF8E4F6050C80E4E50B705A
:1000590061F50CAF0CEF3395E0FEC3EF9404EE6449
:10006900809480400302015374342FF8E625E0F5AB
:100079001CC37405950C242FF8E6551CD394007401
:1000890080948040167B007A00790EAD0AAF091280
:100099000678E4F53A7539047F0122C37405950C95
:1000A900FF242FF8E6451CFE74292FF8A606050C37
:1000B90080A1E50BFD7C006401704BF50CAF0CEFE2
:1000C9003395E0FEC3EF9404EE64809480507B7412
:1000D900342FF8E625E025E0F51CC37404950C24BB
:1000E9002FF8E6FE551CD394007480948040037F5A
:1000F9000122C37404950CFFE51C4EFE74292FF8E8
:10010900A606050C80B7ED64024C703BF50CAF0CEC
:10011900EF3395E0FEC3EF9404EE64809480502A97
:1001290074342FF8E6F51CC37404950CFE242FF8DB
:10013900E6FD551C60037F0122E51C4DFF74292E45
:10014900F8A607050C80C77F0122751B0E751A29B1
:10015900E4F50CAF0CEF3395E0FEC3EF9406EE64C3
:100169008094805018A81BE6FFA81AE66FFF741444
:10017900250CF8A607051A051B050C80D6E515649C
:1001890020700AFB7AF87D027F021207CBE4F50C96
:10019900AF0CEF3395E0FEC3EF9406EE64809480D4
:1001A900506374142FF8E66058751C20E4F50DAF00
:1001B9000DEF3395E0FEC3EF9406EE648094805012
:1001C900407414250CF8E6551C602C740E250CF8A7
:1001D900E6551C6010E509250D04FFE50A250CFD0F
:1001E900E4FBFA800FE509250D04FFE50A250CFD5E
:1001F9007B007AF81207CBE51CC313F51C050D80AB
:07020900AE050C808B7F00A5
:0102100022CB
:1003BF00E4F508C3E508940674809480500B742FFD
:1003CF002508F8E4F6050880EAE4F508C3E5089483
:1003DF0014748094805029E50825E02400F582E408
:1003EF003400F58374C0F0A37403F0E50825E0240E
:1003FF0028F582E43400F583E4F0A3F0050880CCFF
:10040F0074FF900026F0A3F0120211D295E4FFFEC4
:10041F001208507FF47E018071AD3AAF3912055B3F
:10042F00E4FBAD3AAF39120003EF7009AD3AAF39C3
:10043F00120764804FE4F508C3E5089406748094AE
:10044F0080500B74292508F8E4F6050880EAE4F5D6
:10045F0008C3E5089414748094805028E50825E0BB
:10046F002400F582E43400F583E0FEA3E0FFE50805
:10047F0025E02428F582E43400F583EEF0A3EFF0B5
:0F048F00050880CD053A7F647E001208AE808A92
:030000000205EC0A
:0C05EC00787FE4F6D8FD75814A020633E2
:1008CE00BB010689828A83E0225002E722BBFE0228
:0908DE00E32289828A83E493225B
:1005F8000203BFE493A3F8E493A34003F68001F257
:1006080008DFF48029E493A3F85407240CC8C33303
:10061800C4540F4420C8834004F456800146F6DFD2
:10062800E4800B010204081020408090091FE47E3A
:10063800019360BCA3FF543F30E509541FFEE493C7
:10064800A360010ECF54C025E060A840B8E493A38E
:10065800FAE493A3F8E493A3C8C582C8CAC583CAB9
:10066800F0A3C8C582C8CAC583CADFE9DEE780BE71
:01092C0000CA
:00000001FF
