:0D0919000534000C080800013904013A0003
:1008A800E4FDFCC3ED9FEC9E5015E4FBFA0BBB0086
:0F08B800010AEB64FA4A70F50DBD00010C80E4F3
:0108C700220E
:100886007E08EED39400748094804015EF30E70420
:10089600D2918002C291C290D290EF25E0FF1E80D5
:0108A600E170
:0108A700222E
:0A092700C294C293120886D29422F3
:0508F9001209277F0138
:0C08FE00E4F528C294D293120886D2942C
:01090A0022CA
:0408E100AD07AC06AD
:1008E500E4F520C294D293AF04120886AF0512082E
:0308F50086D29414
:0108F80022DD
:0E090B00C2927F647E001208A8D2920208A851
:1002110012090B7F111209277F787E001208A87F2F
:10022100B11208F97F2C1208FE7F2D1208FE7FB251
:100231001208F97F2C1208FE7F2D1208FE7FB312DF
:1002410008F97F2C1208FE7F2D1208FE7F0112088B
:10025100FE7F2C1208FE7F2D1208FE7FB4120927A3
:100261007F071208FE7FC01209277FA21208FE7FB6
:10027100021208FE7F841208FE7FC11209277FC582
:100281001208FE7FC21209277F0A1208FEE4FF123C
:1002910008FE7FC31209277F8A1208FE7F2A1208EF
:1002A100FE7FC41209277F8A1208FE7FEE1208FE24
:1002B1007FC51209277F0E1208FE7F361209277F9C
:1002C100C01208FE7FE01209277F0F1208FE7F1A75
:1002D1001208FE7F0F1208FE7F181208FE7F2F12F0
:1002E10008FE7F281208FE7F201208FE7F221208D6
:1002F100FE7F1F1208FE7F1B1208FE7F231208FEDD
:100301007F371208FEE4FF1208FE7F071208FE7F06
:10031100021208FE7F101208FE7FE11209277F0FEB
:100321001208FE7F1B1208FE7F0F1208FE7F1712B4
:1003310008FE7F331208FE7F2C1208FE7F29120867
:10034100FE7F2E1208FE7F301208FE7F301208FE5B
:100351007F391208FE7F3F1208FEE4FF1208FE7F7C
:10036100071208FE7F031208FE7F101208FE7F2A83
:10037100120927E4FF1208FE7F021208FEE4FF12B1
:1003810008FE7F821208FE7F2B120927E4FF120864
:10039100FE7F031208FEE4FF1208FE7F831208FEAF
:1003A1007FF01208F97FF6120927E4FF1208FE7F99
:0E03B1003A1209277F051208FE7F290209274C
:10080D008F827F2A1208F9AF82EF2402FF1208FEB1
:10081D007F011208FEEB2402FF1208FE7F2B120946
:10082D00277F021208FEED04FF1208FE7F02120858
:0D083D00FEE52704FF1208FE7F2C020927AC
:04084A008E098F0A7A
:10084E0075260075279F7B7F7A00E4FDFCFFFE1264
:10085E00080DE4FBEBC394A0748094805019E4FA65
:10086E00EAC3948074809480500AAF0AAE091208CD
:07087E00E10A80EC0B80DDB4
:010885002250
:100498008F458D468B477E00C3EF9480748094808F
:1004A80040030205547C00C3ED94A07480948040FE
:1004B80003020554EF2BFFEE33CF24FFCF34FFFEAA
:1004C800C3EF9480EE64809480400674809545F56F
:1004D800477E00ED2548FFEE3CCF24FFCF34FFFEDA
:1004E800C3EF94A0EE64809480400674A09546F50E
:1004F80048AF457E00C007E546FD7C00E545254739
:10050800FFE433CF24FFFBEF34FFFAE5462548FF2D
:10051800E433CF24FFF527EF34FFF526D007120880
:100528000D854846D3E546940074809480401D8527
:100538004745D3E545940074809480400BAF4AAE9C
:0D054800491208E1154580EA154680D822C9
:0807C5008F1D8A1E8B1FA90580
:1007CD00E51D75F008A4F51DE975F008A4F9AF1D38
:1007DD007E00FD7C00E51D2407FBE433FAE92407C8
:1007ED00F527E433F52612080D7B40EBD394007406
:0F07FD00809480400AAF1FAE1E1208E11B80ECF3
:01080C0022C9
:0806F6008F3B8D3C8A3D8B3ED9
:1006FE00E4F542C3E5429404748094805051E53E83
:10070E00540FF541E53DC4F854F0C868F53DE53E9B
:10071E00C4540F48F53E754308E4F544C3E54494CC
:10072E0004748094805024E54155436014E53B25C4
:10073E0044FFE53C2403C39542FDAB40AA3F12079C
:0F074E00C5E543C313F543054480D1054280A49C
:01075D002279
:040555008F09A9055C
:100559007D287C00E975F002A42DFDE5F03CFCE462
:10056900FBEBC3940674809480502B8D828C83C3DB
:1005790074099509FFE0FEA3E0A807088005CEC32A
:1005890013CE13D8F9FF74292BF8A60774022DFD91
:10059900E43CFC0B80CB7C007D00E975F002A42DC6
:1005A900FDE5F03CFCE4FBEBC394067480948050B9
:1005B9002B8D828C83C374099509FFE0FEA3E0A803
:1005C90007088005CEC313CE13D8F9FF742F2BF873
:0C05D900A60774022DFDE43CFC0B80CB57
:0105E50022F3
:02075E00A907E9
:10076000750900750A28ED75F002A4AEF0250AF5AA
:100770000AEE3509F509E4FDEDC394067480948012
:10078000504274292DF8E6FF7E00C3740999FCEFEE
:10079000A804088005C333CE33CED8F9FF850A827A
:1007A000850983C083C082E04EFBA3E04FD082D096
:1007B00083CBF0A3EBF07402250AF50AE43509F5C2
:0407C000090D80B4EB
:0107C4002212
:080672008B1D8A1E891FAC07D5
:10067A00752000752100ED2402FFE433FEEF25E02A
:10068A00FFEE33FEEF2521F521EE3520F520E4FDBE
:10069A00EDC39406748094805051AB1DAA1EA91F05
:1006AA001208C8FF7E00C374099CFBEFA8030880E8
:1006BA0005C333CE33CED8F9FF852182852083C086
:1006CA0083C082E04EFBA3E04FD082D083CBF0A35D
:1006DA00EBF07401251FF51FE4351EF51E74022583
:0B06EA0021F521E43520F5200D80A54E
:0106F50022E2
:060003008F098D0A8B0B32
:10000900751A29751B0EE4F50CAF0CEF3395E0FE5C
:10001900C3EF9406EE648094805013AF1A051AA8B2
:1000290007E6FF740E250CF8A607050C80DBE4F53E
:100039000CAF0CEF3395E0FEC3EF9406EE648094A9
:1000490080500A74292FF8E4F6050C80E4E50B705A
:1000590061F50CAF0CEF3395E0FEC3EF9404EE6449
:10006900809480400302015374342FF8E625E0F5AB
:100079001CC37405950C242FF8E6551CD394007401
:1000890080948040167B007A00790EAD0AAF091280
:100099000672E4F53A7539027F0122C37405950C9D
:1000A900FF242FF8E6451CFE74292FF8A606050C37
:1000B90080A1E50BFD7C006401704BF50CAF0CEFE2
:1000C9003395E0FEC3EF9404EE64809480507B7412
:1000D900342FF8E625E025E0F51CC37404950C24BB
:1000E9002FF8E6FE551CD394007480948040037F5A
:1000F9000122C37404950CFFE51C4EFE74292FF8E8
:10010900A606050C80B7ED64024C703BF50CAF0CEC
:10011900EF3395E0FEC3EF9404EE64809480502A97
:1001290074342FF8E6F51CC37404950CFE242FF8DB
:10013900E6FD551C60037F0122E51C4DFF74292E45
:10014900F8A607050C80C77F0122751B0E751A29B1
:10015900E4F50CAF0CEF3395E0FEC3EF9406EE64C3
:100169008094805018A81BE6FFA81AE66FFF741444
:10017900250CF8A607051A051B050C80D6E515649C
:1001890020700AFB7AF87D027F021207C5E4F50C9C
:10019900AF0CEF3395E0FEC3EF9406EE64809480D4
:1001A900506374142FF8E66058751C20E4F50DAF00
:1001B9000DEF3395E0FEC3EF9406EE648094805012
:1001C900407414250CF8E6551C602C740E250CF8A7
:1001D900E6551C6010E509250D04FFE50A250CFD0F
:1001E900E4FBFA800FE509250D04FFE50A250CFD5E
:1001F9007B007AF81207C5E51CC313F51C050D80B1
:07020900AE050C808B7F00A5
:0102100022CB
:1003BF00E4F508C3E508940674809480500B742FFD
:1003CF002508F8E4F6050880EAE4F508C3E5089483
:1003DF0014748094805029E50825E02400F582E408
:1003EF003400F58374C0F0A37403F0E50825E0240E
:1003FF0028F582E43400F583E4F0A3F0050880CCFF
:10040F0074FF900026F0A3F0120211D295E4FFFEC4
:10041F0012084A7FF47E011208A8AD3AAF391205CF
:10042F0055E4FBAD3AAF39120003EF7009AD3AAFA7
:10043F003912075E804FE4F508C3E508940674800F
:10044F009480500B74292508F8E4F6050880EAE437
:10045F00F508C3E5089414748094805028E50825A6
:10046F00E02400F582E43400F583E0FEA3E0FFE52D
:10047F000825E02428F582E43400F583EEF0A3EF9D
:09048F00F0050880CD053A8091CA
:030000000205E610
:0C05E600787FE4F6D8FD75814A02062DEE
:1008C800BB010689828A83E0225002E722BBFE022E
:0908D800E32289828A83E4932261
:1005F2000203BFE493A3F8E493A34003F68001F25D
:1006020008DFF48029E493A3F85407240CC8C33309
:10061200C4540F4420C8834004F456800146F6DFD8
:10062200E4800B0102040810204080900919E47E46
:10063200019360BCA3FF543F30E509541FFEE493CD
:10064200A360010ECF54C025E060A840B8E493A394
:10065200FAE493A3F8E493A3C8C582C8CAC583CABF
:10066200F0A3C8C582C8CAC583CADFE9DEE780BE77
:0109260000D0
:00000001FF
