:100983000536000C080800013B01013E000135005B
:06099300013C06013D00DD
:10093200E4FDFCC3ED9FEC9E5015E4FBFA0BBB00FB
:0F094200010AEB64FA4A70F50DBD00010C80E468
:010951002283
:100910007E08EED39400748094804015EF30E70495
:10092000D2A18002C2A1C2A0D2A0EF25E0FF1E800A
:01093000E1E5
:0109310022A3
:0A09BA00C2A4C2A3120910D2A422A5
:05099A001209BA7F0103
:0C099F00E4F52EC2A4D2A3120910D2A4C9
:0109AB002229
:04096B00AD07AC0622
:10096F00E4F526C2A4D2A3AF04120910AF051209F1
:03097F0010D2A4EF
:010982002252
:0E09AC00C2A27F647E00120932D2A20209327A
:10023B001209AC7F111209BA7F787E001209327F46
:10024B00B112099A7F2C12099F7F2D12099F7FB241
:10025B0012099A7F2C12099F7F2D12099F7FB312CF
:10026B00099A7F2C12099F7F2D12099F7F0112097A
:10027B009F7F2C12099F7F2D12099F7FB41209BA01
:10028B007F0712099F7FC01209BA7FA212099F7FB5
:10029B000212099F7F8412099F7FC11209BA7FC581
:1002AB0012099F7FC21209BA7F0A12099FE4FF123B
:1002BB00099F7FC31209BA7F8A12099F7F2A1209ED
:1002CB009F7FC41209BA7F8A12099F7FEE12099F82
:1002DB007FC51209BA7F0E12099F7F361209BA7FAA
:1002EB00C012099F7FE01209BA7F0F12099F7F1A74
:1002FB0012099F7F0F12099F7F1812099F7F2F12E0
:10030B00099F7F2812099F7F2012099F7F221209C4
:10031B009F7F1F12099F7F1B12099F7F2312099F2B
:10032B007F3712099FE4FF12099F7F0712099F7FF6
:10033B000212099F7F1012099F7FE11209BA7F0FEA
:10034B0012099F7F1B12099F7F0F12099F7F1712A4
:10035B00099F7F3312099F7F2C12099F7F29120956
:10036B009F7F2E12099F7F3012099F7F3012099FAA
:10037B007F3912099F7F3F12099FE4FF12099F7F6C
:10038B000712099F7F0312099F7F1012099F7F2A73
:10039B001209BAE4FF12099F7F0212099FE4FF12B0
:1003AB00099F7F8212099F7F2B1209BAE4FF120962
:1003BB009F7F0312099FE4FF12099F7F8312099FFE
:1003CB007FF012099A7FF61209BAE4FF12099F7F98
:0E03DB003A1209BA7F0512099F7F290209BA5A
:100897008F827F2A12099AAF82EF2402FF12099FE3
:1008A7007F0112099FEB2402FF12099F7F2B120978
:1008B700BA7F0212099FED04FF12099F7F021209F6
:0D08C7009FE52D04FF12099F7F2C0209BA46
:0408D4008E4F8F5064
:1008D800752C00752D9F7B7F7A00E4FDFCFFFE12CE
:1008E8000897E4FBEBC394A0748094805019E4FA51
:1008F800EAC3948074809480500AAF50AE4F1209B6
:070908006B0A80EC0B80DD9F
:01090F0022C5
:1004F4008F498D4A8B4B7E00C3EF94807480948027
:1005040040030205B07C00C3ED94A0748094804045
:10051400030205B0EF2BFFEE33CF24FFCF34FFFEF1
:10052400C3EF9480EE64809480400674809549F50E
:100534004B7E00ED254CFFEE3CCF24FFCF34FFFE75
:10054400C3EF94A0EE64809480400674A0954AF5AD
:100554004CAF497E00C007E54AFD7C00E549254BC8
:10056400FFE433CF24FFFBEF34FFFAE54A254CFFC9
:10057400E433CF24FFF52DEF34FFF52CD007120818
:1005840097854C4AD3E54A940074809480401D8535
:100594004B49D3E549940074809480400BAF4EAE30
:0D05A4004D12096B154980EA154A80D822D6
:080808008F238A248B25A9052A
:10081000E52375F008A4F523E975F008A4F9AF23E2
:100820007E00FD7C00E5232407FBE433FAE924077E
:10083000F52DE433F52C1208977B40EBD39400742C
:0F084000809480400AAF25AE2412096B1B80EC18
:01084F002286
:0806F5008F3F8D408A418B42CA
:1006FD00E4F546C3E5469404748094805051E54278
:10070D00540FF545E541C4F854F0C868F541E5428C
:10071D00C4540F48F542754708E4F548C3E54894BD
:10072D0004748094805024E54555476014E53F25B9
:10073D0048FFE5402403C39546FDAB44AA43120888
:0F074D0008E547C313F547054880D1054680A44A
:01075C00227A
:0407BA00AD3DAF3C66
:0207BE00A90789
:1007C0007B287A00ED75F002A42BFBE5F03AFAE401
:1007D000FDEDC3940674809480502C8B828A83C371
:1007E000740999FFE0FEA3E0A807088005CEC313B3
:1007F000CE13D8F9543FFF742F2DF8A60774022B9F
:07080000FBE43AFA0D80CA87
:0108070022CE
:04075D00AD3DAF3CC3
:02076100A907E6
:10076300750900750A28ED75F002A4AEF0250AF5A7
:100773000AEE3509F509E4FDEDC39406748094800F
:100783005034742F2DF8E6FF7E00C3740999FCEFF3
:10079300A804088005C333CE33CED8F9FF850A8277
:1007A300850983EEF0A3EFF07402250AF50AE43518
:0607B30009F5090D80C2EA
:0107B900221D
:0205B1008F1D9C
:1005B300751E00751F00ED75F002A4AEF0251FF542
:1005C3001FEE351EF51EE4F520C3E5209406748066
:1005D30094805055120952543F752100F522C3747B
:1005E30009951DFFAE21E522A807088005C333CE78
:1005F30033CED8F9F5228E21851F82851E83C083D1
:10060300C082E04521FFA3E04522D082D083CFF012
:10061300A3EFF0740129F9E43AFA7402251FF51FD8
:10062300E4351EF51E052080A0752180752200E4A7
:10063300F520C3E520941074809480502890002006
:10064300E05521FEA3E055224E600B7B007AF8E4CF
:10065300FDAF20120808E521C313F521E52213F5A8
:0506630022052080CDFE
:01066800226F
:04000E00AD3DAF3C19
:060012008F098D0A8B0B23
:10001800751A2F751B0EE4F50CAF0CEF3395E0FE47
:10002800C3EF9406EE648094805013AF1A051AA8A3
:1000380007E6FF740E250CF8A607050C80DBE4F52F
:100048000CAF0CEF3395E0FEC3EF9406EE6480949A
:1000580080503CE50A2FFFE43EFEEF25E0FFEE333B
:10006800FE74002FF58274003EF583C37409950968
:10007800FFE0FEA3E0A807088005CEC313CE13D87F
:10008800F9543FFF742F250CF8A607050C80B2E53C
:100098000B705BF50CAF0CEF3395E0FEC3EF9404E7
:1000A800EE64809480400302017D74362FF8E625C3
:1000B800E0F51CC37404950C242FF8E6C313FF74F1
:1000C80037250CF8E65F60167B007A00790EAD0ADA
:1000D800AF091205B1E4F53D753C037F0122C374F5
:1000E80005950C242FF8E6451CF6050C80A7E50BB2
:1000F800FD7C0064017041F50CAF0CEF3395E0FE18
:10010800C3EF9404EE64809480506A74362FF8E646
:10011800FF25E025E0F51CC37404950CFE242FF898
:10012800E6FB1313543F5F60037F0122742F2EF800
:10013800E51C4BF6050C80C1ED64024C7034F50CDF
:10014800AF0CEF3395E0FEC3EF9404EE6480948027
:10015800502374362FF8E6FFF51CC37404950C245D
:100168002FF8E6FE5F60037F0122E51C4EF6050CC2
:1001780080CE7F0122751B0E751A2FE4F50CAF0C8B
:10018800EF3395E0FEC3EF9406EE64809480501838
:10019800A81BE6FFA81AE66FFF7414250CF8A6073B
:1001A800051A051B050C80D6E5156420700AFB7A34
:1001B800F87D027F02120808E4F50CAF0CEF3395C6
:1001C800E0FEC3EF9406EE64809480506374142FAD
:1001D800F8E66058751C20E4F50DAF0DEF3395E097
:1001E800FEC3EF9406EE6480948050407414250C8E
:1001F800F8E6551C602C740E250CF8E6551C6010AA
:10020800E509250D04FFE50A250CFDE4FBFA800F3E
:10021800E509250D04FFE50A250CFD7B007AF81297
:100228000808E51CC313F51C050D80AE050C808B72
:020238007F0045
:01023A0022A1
:1003E900D2B9758901758C3C758AB0D2AFC288C201
:1003F9008AD2A8D2AAD2A9D28C75900FE4F508C3E3
:10040900E508941474809480502AE50825E02400B6
:10041900F582E43400F58374C0F0A3E4F0E508251F
:10042900E02428F582E43400F58374C0F0A3E4F0F5
:10043900050880CB74FF900026F0A3F090004EF0E1
:10044900A3F012023BD2A57FF47E011209321207F2
:10045900BAE53E604B1207BAE4FB12000EEF7005D5
:1004690012075D8036E4F508C3E508941474809496
:10047900805028E50825E02400F582E43400F5835E
:10048900E0FEA3E0FFE50825E02428F582E4340036
:10049900F583EEF0A3EFF0050880CD053DE4F53EC8
:1004A90020931EE535601A7F147E001209322093CD
:1004B900101207BA7B0112000EEF700512075D15C5
:1004C9003C20928DE53560897F147E001209323017
:1004D900920302045A1207BA7B0212000EEF60035C
:0B04E90002045A12075D053C02045A91
:03000B0002085098
:10085000C0E0C0D075D000C006C007758C3C758A5A
:10086000B0C2AF053BAF3B7E00D3EF9418748094C9
:100870008050057535018003753500C3EF941EEE79
:10088000648094804006753B00753E01D2AFD0076E
:07089000D006D0D0D0E03209
:030000000206698C
:0C066900787FE4F6D8FD7581500206B0E1
:10095200BB010689828A83E0225002E722BBFE02A3
:09096200E32289828A83E49322D6
:100675000203E9E493A3F8E493A34003F68001F2AF
:1006850008DFF48029E493A3F85407240CC8C33386
:10069500C4540F4420C8834004F456800146F6DF55
:1006A500E4800B0102040810204080900983E47E59
:1006B500019360BCA3FF543F30E509541FFEE4934A
:1006C500A360010ECF54C025E060A840B8E493A311
:1006D500FAE493A3F8E493A3C8C582C8CAC583CA3C
:1006E500F0A3C8C582C8CAC583CADFE9DEE780BEF4
:01099900005D
:00000001FF
