:10084700023700140532000C080800013905013A87
:0108570000A0
:1007FD00E4FDFCC3ED9FEC9E5015E4FBFA0BBB0032
:0F080D00010AEB64FA4A70F50DBD00010C80E49E
:01081C0022B9
:1007DB007E08EED39400748094804015EF30E704CC
:1007EB00D2918002C291C290D290EF25E0FF1E8081
:0107FB00E11C
:0107FC0022DA
:0A086700C294C2931207DBD2942260
:050835001208677F01BD
:0C083A00E4F526C294D2931207DBD2949E
:01084600228F
:04081D00AD07AC0671
:10082100E4F51EC294D293AF041207DBAF051207A1
:03083100DBD29483
:0108340022A1
:0E085900C2927F647E001207FDD2920207FD5C
:100204001208597F111208677F787E001207FD7F5C
:10021400B11208357F2C12083A7F2D12083A7FB2AA
:100224001208357F2C12083A7F2D12083A7FB31238
:1002340008357F2C12083A7F2D12083A7F011208E4
:100244003A7F2C12083A7F2D12083A7FB4120867BD
:100254007F0712083A7FC01208677FA212083A7F0C
:100264000212083A7F8412083A7FC11208677FC5D8
:1002740012083A7FC21208677F0A12083AE4FF1292
:10028400083A7FC31208677F8A12083A7F2A120845
:100294003A7FC41208677F8A12083A7FEE12083A3E
:1002A4007FC51208677F0E12083A7F361208677FEF
:1002B400C012083A7FE01208677F0F12083A7F1ACB
:1002C40012083A7F0F12083A7F1812083A7F2F1249
:1002D400083A7F2812083A7F2012083A7F2212082F
:1002E4003A7F1F12083A7F1B12083A7F2312083AFA
:1002F4007F3712083AE4FF12083A7F0712083A7F60
:100304000212083A7F1012083A7FE11208677F0F41
:1003140012083A7F1B12083A7F0F12083A7F17120D
:10032400083A7F3312083A7F2C12083A7F291208C0
:100334003A7F2E12083A7F3012083A7F3012083A78
:100344007F3912083A7F3F12083AE4FF12083A7FD5
:100354000712083A7F0312083A7F1012083A7F2ADC
:10036400120867E4FF12083A7F0212083AE4FF1207
:10037400083A7F8212083A7F2B120867E4FF1208BA
:100384003A7F0312083AE4FF12083A7F8312083ACC
:100394007FF01208357FF6120867E4FF12083A7FEF
:0E03A4003A1208677F0512083A7F290208679F
:10073A008F827F2A120835AF82EF2402FF12083A0D
:10074A007F0112083AEB2402FF12083A7F2B1208A3
:10075A00677F0212083AED04FF12083A7F02120874
:0D076A003AE52504FF12083A7F2C020867CB
:040777008E418F42DE
:10077B0075240075259F7B7F7A00E4FDFCFFFE123C
:10078B00073AE4FBEBC394A0748094805019E4FA0D
:10079B00EAC3948074809480500AAF42AE41120831
:0707AB001D0A80EC0B80DD4C
:0107B2002224
:1003B2008F3B8D3C8B3D7E00C3EF94807480948094
:1003C200400302046E7C00C3ED94A07480948040CC
:1003D2000302046EEF2BFFEE33CF24FFCF34FFFE78
:1003E200C3EF9480EE6480948040067480953BF560
:1003F2003D7E00ED253EFFEE3CCF24FFCF34FFFED5
:10040200C3EF94A0EE64809480400674A0953CF5FE
:100412003EAF3B7E00C007E53CFD7C00E53B253D51
:10042200FFE433CF24FFFBEF34FFFAE53C253EFF28
:10043200E433CF24FFF525EF34FFF524D00712076C
:100442003A853E3CD3E53C940074809480401D85FF
:100452003D3BD3E53B940074809480400BAF40AEAB
:0D0462003F12081D153B80EA153C80D82292
:0806F2008F1B8A1C8B1DA9055A
:1006FA00E51B75F008A4F51BE975F008A4F9AF1B12
:10070A007E00FD7C00E51B2407FBE433FAE924079D
:10071A00F525E433F52412073A7B40EBD3940074B1
:0F072A00809480400AAF1DAE1C12081D1B80EC8E
:01073900229D
:080623008F088D098A0A8B0B78
:10062B00E4F50FC3E50F9404748094805051E50BEF
:10063B00540FF50EE50AC4F854F0C868F50AE50B3B
:10064B00C4540F48F50B751008E4F511C3E511946C
:10065B0004748094805024E50E55106014E5082531
:10066B0011FFE5092403C3950FFDAB0DAA0C120670
:0F067B00F2E510C313F510051180D1050F80A40F
:01068A00224D
:04059F008F08A90513
:1005A3007D147C00E975F002A42DFDE5F03CFCE42C
:1005B300FBEBC3940674809480502B8D828C83C391
:1005C30074099508FFE0FEA3E0A807088005CEC3E1
:1005D30013CE13D8F9FF74272BF8A60774022DFD49
:1005E300E43CFC0B80CBE4FBEBC394067480948067
:1005F300502DE92B2400F582E43400F583E0FFC39A
:1006030074099508FEF8EF088002C313D8FCFF7441
:0F0613002D2BF8A60774022DFDE43CFC0B80C9CB
:0106220022B5
:02068B00A907BD
:10068D00750800750914ED75F002A4AEF02509F595
:10069D0009EE3508F508E4FDEDC3940674809480E9
:1006AD00504274272DF8E6FF7E00C3740999FCEFC4
:1006BD00A804088005C333CE33CED8F9FF8509824F
:1006CD00850883C083C082E04EFBA3E04FD082D06B
:1006DD0083CBF0A3EBF074022509F509E43508F599
:0406ED00080D80B4C0
:0106F10022E6
:040003008F088D09CC
:1000070075182775190CE4F50AAF0AEF3395E0FE6A
:10001700C3EF9406EE648094805013AF180518A8B8
:1000270007E6FF740C250AF8A607050A80DBE4F546
:100037000AAF0AEF3395E0FEC3EF9406EE648094AF
:1000470080500A74272FF8E4F6050A80E4EB704C19
:10005700F50AAF0AEF3395E0FEC3EF9404EE648030
:100067009480400302013674322FF8E625E0F51A32
:10007700C37405950A242DF8E6FE551AD394007427
:1000870080948040037F0122C37405950AFFE51A17
:100097004EFE74272FF8A606050A80B6EB6401709A
:1000A7004BF50AAF0AEF3395E0FEC3EF9404EE6415
:1000B700809480507A74322FF8E625E025E0F51A0F
:1000C700C37404950A242DF8E6FE551AD3940074D8
:1000D70080948040037F0122C37404950AFFE51AC8
:1000E7004EFE74272FF8A606050A80B7EB64027048
:1000F7003BF50AAF0AEF3395E0FEC3EF9404EE64D5
:10010700809480502A74322FF8E6F51AC374049548
:100117000AFE242DF8E6FD551A60037F0122E51A31
:100127004DFF74272EF8A607050A80C77F0122E531
:100137002F64C0700AFB7AF87D017F011206F27501
:10014700190C751827E4F50AAF0AEF3395E0FEC3DB
:10015700EF9406EE648094805018A819E6FFA8185B
:10016700E66FFF7412250AF8A60705180519050A90
:1001770080D6E5136420700AFB7AF87D027F0212AD
:1001870006F2E4F50AAF0AEF3395E0FEC3EF9406F3
:10019700EE64809480506374122FF8E66058751AE5
:1001A70020E4F50BAF0BEF3395E0FEC3EF9406EEBB
:1001B7006480948050407412250AF8E6551A602C22
:1001C700740C250AF8E6551A6010E508250B04FF9C
:1001D700E509250AFDE4FBFA800FE508250B04FF76
:1001E700E509250AFD7B007AF81206F2E51AC31322
:0C01F700F51A050B80AE050A808B7F0016
:0102030022D8
:1007B300E4FDEDC3940474809480501BEF540FFC4C
:1007C30074322DF8A604EEC4F854F0C868FEEFC4E2
:0707D300540F48FF0D80DB0D
:0107DA0022FC
:10046F00E4FFEFC39406748094805009742D2FF825
:10047F00E4F60F80EDE4FFEFC39414748094805082
:10048F002074002FF582E43400F5837407F0EF2514
:10049F00E02414F582E43400F583E4F0A3F00F8038
:1004AF00D690001274FFF0120204D295E53904FFC2
:1004BF00750CFF750DE07BC07A887D051206237FD2
:1004CF00F47E011207FD7D04AF3912059F7D04AF45
:1004DF003912068B7D05AF3912059FE4FB7D05AF01
:1004EF0039120003EF640160127D05AF3912068BDC
:1004FF007FE87E031207FD153980D97FF47E011244
:04050F0007FD80F76D
:03000000020513E3
:0C051300787FE4F6D8FD75814202055A9D
:10051F0002046FE493A3F8E493A34003F68001F27F
:10052F0008DFF48029E493A3F85407240CC8C333DD
:10053F00C4540F4420C8834004F456800146F6DFAC
:10054F00E4800B0102040810204080900847E47EED
:10055F00019360BCA3FF543F30E509541FFEE493A1
:10056F00A360010ECF54C025E060A840B8E493A368
:10057F00FAE493A3F8E493A3C8C582C8CAC583CA93
:10058F00F0A3C8C582C8CAC583CADFE9DEE780BE4B
:01085800009F
:00000001FF
