:0D08FB000535000C080800013A06013B0914
:10088A00E4FDFCC3ED9FEC9E5015E4FBFA0BBB00A4
:0F089A00010AEB64FA4A70F50DBD00010C80E411
:0108A900222C
:100868007E08EED39400748094804015EF30E7043E
:10087800D2918002C291C290D290EF25E0FF1E80F3
:01088800E18E
:01088900224C
:0A090900C294C293120868D294222F
:0508DB001209097F0174
:0C08E000E4F52EC294D293120868D29462
:0108EC0022E9
:0408C300AD07AC06CB
:1008C700E4F526C294D293AF04120868AF05120864
:0308D70068D29450
:0108DA0022FB
:0E08ED00C2927F647E0012088AD29202088AAC
:10023D001208ED7F111209097F787E0012088A7F5E
:10024D00B11208DB7F2C1208E07F2D1208E07FB27F
:10025D001208DB7F2C1208E07F2D1208E07FB3120D
:10026D0008DB7F2C1208E07F2D1208E07F011208B9
:10027D00E07F2C1208E07F2D1208E07FB4120909EF
:10028D007F071208E07FC01209097FA21208E07FE4
:10029D00021208E07F841208E07FC11209097FC5B0
:1002AD001208E07FC21209097F0A1208E0E4FF126A
:1002BD0008E07FC31209097F8A1208E07F2A12081D
:1002CD00E07FC41209097F8A1208E07FEE1208E070
:1002DD007FC51209097F0E1208E07F361209097FCA
:1002ED00C01208E07FE01209097F0F1208E07F1AA3
:1002FD001208E07F0F1208E07F181208E07F2F121E
:10030D0008E07F281208E07F201208E07F22120803
:10031D00E07F1F1208E07F1B1208E07F231208E028
:10032D007F371208E0E4FF1208E07F071208E07F34
:10033D00021208E07F101208E07FE11209097F0F19
:10034D001208E07F1B1208E07F0F1208E07F1712E2
:10035D0008E07F331208E07F2C1208E07F29120895
:10036D00E07F2E1208E07F301208E07F301208E0A7
:10037D007F391208E07F3F1208E0E4FF1208E07FAA
:10038D00071208E07F031208E07F101208E07F2AB1
:10039D00120909E4FF1208E07F021208E0E4FF12DF
:1003AD0008E07F821208E07F2B120909E4FF120892
:1003BD00E07F031208E0E4FF1208E07F831208E0FB
:1003CD007FF01208DB7FF6120909E4FF1208E07FC7
:0E03DD003A1209097F051208E07F290209097A
:1007EF008F827F2A1208DBAF82EF2402FF1208E00C
:1007FF007F011208E0EB2402FF1208E07F2B1209A1
:10080F00097F021208E0ED04FF1208E07F021208D0
:0D081F00E0E52D04FF1208E07F2C0209091E
:04082C008E4C8F4D12
:10083000752C00752D9F7B7F7A00E4FDFCFFFE1276
:1008400007EFE4FBEBC394A0748094805019E4FAA2
:10085000EAC3948074809480500AAF4DAE4C120865
:07086000C30A80EC0B80DDF0
:01086700226E
:1003EB008F468D478B487E00C3EF9480748094803A
:1003FB0040030204A77C00C3ED94A074809480405A
:10040B00030204A7EF2BFFEE33CF24FFCF34FFFE05
:10041B00C3EF9480EE64809480400674809546F51B
:10042B00487E00ED2549FFEE3CCF24FFCF34FFFE85
:10043B00C3EF94A0EE64809480400674A09547F5BA
:10044B0049AF467E00C007E547FD7C00E5462548E1
:10045B00FFE433CF24FFFBEF34FFFAE5472549FFD9
:10046B00E433CF24FFF52DEF34FFF52CD007120723
:10047B00EF854947D3E547940074809480401D85F0
:10048B004846D3E546940074809480400BAF4BAE46
:0D049B004A1208C3154680EA154780D82292
:0807A7008F238A248B25A9058C
:1007AF00E52375F008A4F523E975F008A4F9AF2344
:1007BF007E00FD7C00E5232407FBE433FAE92407E0
:1007CF00F52DE433F52C1207EF7B40EBD394007437
:0F07DF00809480400AAF25AE241208C31B80EC23
:0107EE0022E8
:08069C008F3C8D3D8A3E8B3F2F
:1006A400E4F543C3E5439404748094805051E53FDA
:1006B400540FF542E53EC4F854F0C868F53EE53FF2
:1006C400C4540F48F53F754408E4F545C3E5459423
:1006D40004748094805024E54255446014E53C251C
:1006E40045FFE53D2403C39543FDAB41AA401207F2
:0F06F400A7E544C313F544054580D1054380A411
:0107030022D3
:02075D00A907EA
:10075F007B287A00ED75F002A42BFBE5F03AFAE462
:10076F00FDEDC3940674809480502C8B828A83C3D2
:10077F00740999FFE0FEA3E0A807088005CEC31314
:10078F00CE13D8F9543FFF742F2DF8A60774022B00
:07079F00FBE43AFA0D80CAE9
:0107A6002230
:02070400A90743
:10070600750900750A28ED75F002A4AEF0250AF504
:100716000AEE3509F509E4FDEDC39406748094806C
:100726005034742F2DF8E6FF7E00C3740999FCEF50
:10073600A804088005C333CE33CED8F9FF850A82D4
:10074600850983EEF0A3EFF07402250AF50AE43575
:0607560009F5090D80C247
:01075C00227A
:0204A8008F1DA6
:1004AA00751E00751F00ED75F002A4AEF0251FF54C
:1004BA001FEE351EF51EE4F520C3E5209406748070
:1004CA00948050551208AA543F752100F522C3742E
:1004DA0009951DFFAE21E522A807088005C333CE82
:1004EA0033CED8F9F5228E21851F82851E83C083DB
:1004FA00C082E04521FFA3E04522D082D083CFF01D
:10050A00A3EFF0740129F9E43AFA7402251FF51FE2
:10051A00E4351EF51E052080A0752180752200E4B1
:10052A00F520C3E520941074809480502890002010
:10053A00E05521FEA3E055224E600B7B007AF8E4D9
:10054A00FDAF201207A7E521C313F521E52213F514
:05055A0022052080CD08
:01055F002279
:060003008F098D0A8B0B32
:10000900751A2F751B0EE4F50CAF0CEF3395E0FE56
:10001900C3EF9406EE648094805013AF1A051AA8B2
:1000290007E6FF740E250CF8A607050C80DBE4F53E
:100039000CAF0CEF3395E0FEC3EF9406EE648094A9
:1000490080503CE50A2FFFE43EFEEF25E0FFEE334A
:10005900FE74002FF58274003EF583C37409950977
:10006900FFE0FEA3E0A807088005CEC313CE13D88E
:10007900F9543FFF742F250CF8A607050C80B2E54B
:100089000B705BF50CAF0CEF3395E0FEC3EF9404F6
:10009900EE64809480400302017F74352FF8E625D1
:1000A900E0F51CC37404950C242FF8E6C313FF7400
:1000B90036250CF8E65F60167B007A00790EAD0AEA
:1000C900AF091204A8753B08753A037F0122C3746E
:1000D90005950C242FF8E6451CF6050C80A7E50BC1
:1000E900FD7C0064017043F50CAF0CEF3395E0FE25
:1000F900C3EF9404EE64809480507B74352FF8E646
:10010900FF25E025E0F51CC37404950C242FF8E6BF
:100119001313543F5F60037F0122C37405950C24B8
:100129002FF8E6451CF6050C80BFED64024C7043C0
:10013900F50CAF0CEF3395E0FEC3EF9404EE648049
:100149009480503274352FF8E6F51CC37404950C6D
:10015900242FF8E6C313FF7436250CF8E65F600315
:100169007F0122C37405950C242FF8E6451CF6057A
:100179000C80BF7F0122751B0E751A2FE4F50CAF99
:100189000CEF3395E0FEC3EF9406EE648094805043
:1001990018A81BE6FFA81AE66FFF7414250CF8A629
:1001A90007051A051B050C80D6E5156420700AFBA6
:1001B9007AF87D027F021207A7E4F50CAF0CEF3342
:1001C90095E0FEC3EF9406EE648094805063741446
:1001D9002FF8E66058751C20E4F50DAF0DEF339547
:1001E900E0FEC3EF9406EE648094805040741425B9
:1001F9000CF8E6551C602C740E250CF8E6551C60AD
:1002090010E509250D04FFE50A250CFDE4FBFA803C
:100219000FE509250D04FFE50A250CFD7B007AF899
:100229001207A7E51CC313F51C050D80AE050C804C
:030239008B7F00B8
:01023C00229F
:10056000E4F508C3E508941474809480502AE508E3
:1005700025E02400F582E43400F58374C0F0A3E4A0
:10058000F0E50825E02428F582E43400F58374C002
:10059000F0A3E4F0050880CB900024740FF0A3745E
:1005A0007FF090004C740FF0A3747FF012023DD2E4
:1005B000958054AD3BAF3A12075D7B01AD3BAF3A3E
:1005C000120003EF7009AD3BAF3A1207048036E426
:1005D000F508C3E5089414748094805028E5082534
:1005E000E02400F582E43400F583E0FEA3E0FFE5BB
:1005F0000825E02428F582E43400F583EEF0A3EF2B
:10060000F0050880CD153A7FF47E0112088A80A398
:03000000020610E5
:0C061000787FE4F6D8FD75814D02065796
:1008AA00BB010689828A83E0225002E722BBFE024C
:0908BA00E32289828A83E493227F
:10061C00020560E493A3F8E493A34003F68001F28F
:10062C0008DFF48029E493A3F85407240CC8C333DF
:10063C00C4540F4420C8834004F456800146F6DFAE
:10064C00E4800B01020408102040809008FBE47E3B
:10065C00019360BCA3FF543F30E509541FFEE493A3
:10066C00A360010ECF54C025E060A840B8E493A36A
:10067C00FAE493A3F8E493A3C8C582C8CAC583CA95
:10068C00F0A3C8C582C8CAC583CADFE9DEE780BE4D
:0109080000EE
:00000001FF
