:1007BF00023A00140535000C080800013C04013D05
:0107CF000029
:10077500E4FDFCC3ED9FEC9E5015E4FBFA0BBB00BA
:0F078500010AEB64FA4A70F50DBD00010C80E427
:010794002242
:100753007E08EED39400748094804015EF30E70454
:10076300D2918002C291C290D290EF25E0FF1E8009
:01077300E1A4
:010774002262
:0A07DF00C294C293120753D2942271
:0507AD001207DF7F01CF
:0C07B200E4F529C294D293120753D294AC
:0107BE002218
:04079500AD07AC06FA
:10079900E4F521C294D293AF04120753AF051207AF
:0307A90053D29494
:0107AC00222A
:0E07D100C2927F647E00120775D292020775F5
:100003001207D17F111207DF7F787E001207757FF9
:10001300B11207AD7F2C1207B27F2D1207B27FB248
:100023001207AD7F2C1207B27F2D1207B27FB312D6
:1000330007AD7F2C1207B27F2D1207B27F01120783
:10004300B27F2C1207B27F2D1207B27FB41207DFE3
:100053007F071207B27FC01207DF7FA21207B27FAA
:10006300021207B27F841207B27FC11207DF7FC576
:100073001207B27FC21207DF7F0A1207B2E4FF1230
:1000830007B27FC31207DF7F8A1207B27F2A1207E4
:10009300B27FC41207DF7F8A1207B27FEE1207B264
:1000A3007FC51207DF7F0E1207B27F361207DF7F8D
:1000B300C01207B27FE01207DF7F0F1207B27F1A69
:1000C3001207B27F0F1207B27F181207B27F2F12E7
:1000D30007B27F281207B27F201207B27F221207CE
:1000E300B27F1F1207B27F1B1207B27F231207B220
:1000F3007F371207B2E4FF1207B27F071207B27FFE
:10010300021207B27F101207B27FE11207DF7F0FDF
:100113001207B27F1B1207B27F0F1207B27F1712AB
:1001230007B27F331207B27F2C1207B27F2912075F
:10013300B27F2E1207B27F301207B27F301207B29E
:100143007F391207B27F3F1207B2E4FF1207B27F73
:10015300071207B27F031207B27F101207B27F2A7A
:100163001207DFE4FF1207B27F021207B2E4FF12A5
:1001730007B27F821207B27F2B1207DFE4FF120759
:10018300B27F031207B2E4FF1207B27F831207B2F2
:100193007FF01207AD7FF61207DFE4FF1207B27F8D
:0E01A3003A1207DF7F051207B27F290207DF3D
:1006B2008F827F2A1207ADAF82EF2402FF1207B2A8
:1006C2007F011207B2EB2402FF1207B27F2B12073F
:1006D200DF7F021207B2ED04FF1207B27F02120798
:0D06E200B2E52804FF1207B27F2C0207DFEB
:0406EF008E098F0AD7
:1006F30075270075289F7B7F7A00E4FDFCFFFE12BF
:1007030006B2E4FBEBC394A0748094805019E4FA1E
:10071300EAC3948074809480500AAF0AAE0912072A
:07072300950A80EC0B80DD5C
:01072A0022AC
:1003CC008F3E8D3F8B407E00C3EF94807480948071
:1003DC0040030204887C00C3ED94A0748094804098
:1003EC0003020488EF2BFFEE33CF24FFCF34FFFE44
:1003FC00C3EF9480EE6480948040067480953EF543
:10040C00407E00ED2541FFEE3CCF24FFCF34FFFEB4
:10041C00C3EF94A0EE64809480400674A0953FF5E1
:10042C0041AF3E7E00C007E53FFD7C00E53E254028
:10043C00FFE433CF24FFFBEF34FFFAE53F2541FF08
:10044C00E433CF24FFF528EF34FFF527D00712064D
:10045C00B285413FD3E53F940074809480401D8564
:10046C00403ED3E53E940074809480400BAF43AE85
:0D047C0042120795153E80EA153F80D822F8
:08066A008F1E8A1F8B20A905D9
:10067200E51E75F008A4F51EE975F008A4F9AF1E91
:100682007E00FD7C00E51E2407FBE433FAE9240723
:10069200F528E433F5271206B27B40EBD3940074BD
:0F06A200809480400AAF20AE1F1207951B80EC9A
:0106B1002226
:08059B008F098D0A8A0B8B0CFD
:1005A300E4F510C3E5109404748094805051E50C75
:1005B300540FF50FE50BC4F854F0C868F50BE50CC0
:1005C300C4540F48F50C751108E4F512C3E51294F1
:1005D30004748094805024E50F55116014E50925B7
:1005E30012FFE50A2403C39510FDAB0EAA0D1206F4
:0F05F3006AE511C313F511051280D1051080A41C
:0106020022D5
:040515008F09A9059C
:100519007D147C00E975F002A42DFDE5F03CFCE4B6
:10052900FBEBC3940674809480502D8D828C83C319
:1005390074099509FFE0FEA3E0A807088005CEC36A
:1005490013CE13D8F9543FFF742A2BF8A607740267
:100559002DFDE43CFC0B80C9E4FBEBC394067480DD
:100569009480502DE92B2400F582E43400F583E0D2
:10057900FFC374099509FEF8EF088002C313D8FC7C
:10058900FF74302BF8A60774022DFDE43CFC0B80A8
:01059900C998
:01059A00223E
:02060300A90745
:10060500750900750A14ED75F002A4AEF0250AF51A
:100615000AEE3509F509E4FDEDC39406748094806E
:100625005042742A2DF8E6FF7E00C3740999FCEF49
:10063500A804088005C333CE33CED8F9FF850A82D6
:10064500850983C083C082E04EFBA3E04FD082D0F2
:1006550083CBF0A3EBF07402250AF50AE43509F51E
:04066500090D80B447
:01066900226E
:0801B1008F098D0A8A0B8B0CEB
:1001B900751B2A751C0FE4F50DAF0DEF3395E0FEA5
:1001C900C3EF9406EE648094805013AF1B051BA8FF
:1001D90007E6FF740F250DF8A607050D80DBE4F58A
:1001E9000DAF0DEF3395E0FEC3EF9406EE648094F6
:1001F90080500A742A2FF8E4F6050D80E4E4F50D21
:10020900AF0DEF3395E0FEC3EF9404EE6480948064
:10021900504274352FF8E625E0F51DC37405950D98
:100229002430F8E6551DD3940074809480400E7BE9
:10023900007AF87D017F0112066A7F0122C37405E5
:10024900950DFF2430F8E6451DFE742A2FF8A60601
:10025900050D80AC751C0F751B2AE4F50DAF0DEF6C
:100269003395E0FEC3EF9406EE648094805018A89D
:100279001CE6FFA81BE66FFF7415250DF8A60705F8
:100289001B051C050D80D6E4F50DAF0DEF3395E088
:10029900FEC3EF9406EE64809480506374152FF8C2
:1002A900E66058751D10E4F50EAF0EEF3395E0FECC
:1002B900C3EF9406EE6480948050407415250DF8C0
:1002C900E6551D602C740F250DF8E6551D6010E5E7
:1002D90009250E04FFE50A250DFDE4FBFA800FE56B
:1002E90009250E04FFE50A250DFDAB0CAA0B120624
:1002F9006AE51DC313F51D050E80AE050D808B7FC4
:0103090000F3
:01030A0022D0
:10072B00E4FDEDC3940474809480501BEF540FFCD4
:10073B0074352DF8A604EEC4F854F0C868FEEFC467
:07074B00540F48FF0D80DB95
:010752002284
:10030B00E4F508C3E508940674809480500B7430B0
:10031B002508F8E4F6050880EAE4F508C3E5089437
:10032B001474809480502274002508F582E4340004
:10033B00F583E4F0E50825E02414F582E43400F5B8
:10034B0083E4F0A3F0050880D390001274FFF01241
:10035B000003D29574FFFFFE1206EFE53C04FF7518
:10036B000DFF750EE07BC07A887D0512059B7FF42F
:10037B007E011207757D04AF3C1205157D04AF3C61
:10038B00120603E4F508E5082405FDAF3C1205153C
:10039B00E5082405FD7B007AF8AF3C1201B1EF6450
:1003AB00016015E5082405FDAF3C1206037FE87ECE
:1003BB0003120775050880CE7FF47E011207758046
:0103CB00F73A
:030000000204896E
:0C048900787FE4F6D8FD7581430204D0B2
:1004950002030BE493A3F8E493A34003F68001F26F
:1004A50008DFF48029E493A3F85407240CC8C33368
:1004B500C4540F4420C8834004F456800146F6DF37
:1004C500E4800B01020408102040809007BFE47E01
:1004D500019360BCA3FF543F30E509541FFEE4932C
:1004E500A360010ECF54C025E060A840B8E493A3F3
:1004F500FAE493A3F8E493A3C8C582C8CAC583CA1E
:10050500F0A3C8C582C8CAC583CADFE9DEE780BED5
:0107D0000028
:00000001FF
