:100B8600E4FDFCC3ED9FEC9E5015E4FBFA0BBB00A5
:0F0B9600010AEB64FA4A70F50DBD00010C80E412
:010BA500222D
:100B64007E08EED39400748094804015EF30E7043F
:100B7400D2918002C291C290D290EF25E0FF1E80F4
:010B8400E18F
:010B8500224D
:0A0BEA00C294C293120B64D294224D
:050BBE00120BEA7F01AB
:0C0BC300E4F51AC294D293120B64D29491
:010BCF002203
:040BA600AD07AC06E5
:100BAA00E4F512C294D293AF04120B64AF05120B90
:030BBA0064D2946E
:010BBD002215
:0E0BD000C2927F647E00120B86D292020B86C8
:10080000120BD07F11120BEA7F787E00120B867FCD
:10081000B1120BBE7F2C120BC37F2D120BC37FB204
:10082000120BBE7F2C120BC37F2D120BC37FB31292
:100830000BBE7F2C120BC37F2D120BC37F01120B3B
:10084000C37F2C120BC37F2D120BC37FB4120BEA94
:100850007F07120BC37FC0120BEA7FA2120BC37F6C
:1008600002120BC37F84120BC37FC1120BEA7FC538
:10087000120BC37FC2120BEA7F0A120BC3E4FF12F2
:100880000BC37FC3120BEA7F8A120BC37F2A120BA2
:10089000C37FC4120BEA7F8A120BC37FEE120BC315
:1008A0007FC5120BEA7F0E120BC37F36120BEA7F55
:1008B000C0120BC37FE0120BEA7F0F120BC37F1A2B
:1008C000120BC37F0F120BC37F18120BC37F2F12A3
:1008D0000BC37F28120BC37F20120BC37F22120B86
:1008E000C37F1F120BC37F1B120BC37F23120BC3CB
:1008F0007F37120BC3E4FF120BC37F07120BC37FBA
:1009000002120BC37F10120BC37FE1120BEA7F0FA1
:10091000120BC37F1B120BC37F0F120BC37F171267
:100920000BC37F33120BC37F2C120BC37F29120B17
:10093000C37F2E120BC37F30120BC37F30120BC349
:100940007F39120BC37F3F120BC3E4FF120BC37F2F
:1009500007120BC37F03120BC37F10120BC37F2A36
:10096000120BEAE4FF120BC37F02120BC3E4FF1267
:100970000BC37F82120BC37F2B120BEAE4FF120B17
:10098000C37F03120BC3E4FF120BC37F83120BC39D
:100990007FF0120BBE7FF6120BEAE4FF120BC37F4F
:0E09A0003A120BEA7F05120BC37F29020BEA05
:100AEB008F827F2A120BBEAF82EF2402FF120BC341
:100AFB007F01120BC3EB2402FF120BC37F2B120BD4
:100B0B00EA7F02120BC3ED04FF120BC37F02120B21
:0D0B1B00C3E51904FF120BC37F2C020BEA87
:040B28008E088F099B
:100B2C0075180075199F7B7F7A00E4FDFCFFFE129F
:100B3C000AEBE4FBEBC394A0748094805019E4FAA4
:100B4C00EAC3948074809480500AAF09AE08120BEB
:070B5C00A60A80EC0B80DD0E
:010B6300226F
:1009AE008E088F098A0C8B0D8D828C83C3E509947A
:1009BE0080E50894004003020A8AC3E58294A0E50C
:1009CE008394004003020A8AE509250DCFE5083518
:1009DE000CCF24FFCF34FFFEC3EF9480EE94004083
:1009EE000B74809509F50DE49508F50CE50F25823D
:1009FE00CFE50E3583CF24FFCF34FFFEC3EF94A097
:100A0E00EE9400400B74A09582F50FE49583F50EDD
:100A1E00AD82AC83E509250DCFE508350CCF24FF5B
:100A2E00FBEF34FFFAE50F2582CFE50E3583CF2499
:100A3E00FFF519EF34FFF518AF09AE08120AEB8572
:100A4E000E83850F82D3E5829400E5839400402CBB
:100A5E00850C08850D09D3E5099400E5089400403E
:100A6E0011AF11AE10120BA6E5091509700215088B
:0D0A7E0080E4E58215827002158380C92294
:100A8B00120800D295E4FFFE120B28750E00750FAD
:100A9B003C7510F87511007B3C7A007D327C007F31
:100AAB00327E001209AE750E00750F087510F875C1
:100ABB0011007B087A00E4FDFC7F14FE1209AE7571
:100ACB000E00750F087510F87511007B087A00E49D
:100ADB00FDFCFFFE1209AE7FF47E01120B8680F740
:03000000020BDE12
:0C0BDE00787FE4F6D8FD75811A020A8BBE
:00000001FF
