:100B9100E4FDFCC3ED9FEC9E5015E4FBFA0BBB009A
:0F0BA100010AEB64FA4A70F50DBD00010C80E407
:010BB0002222
:100B6F007E08EED39400748094804015EF30E70434
:100B7F00D2918002C291C290D290EF25E0FF1E80E9
:010B8F00E184
:010B90002242
:0A0BF500C294C293120B6FD2942237
:050BC900120BF57F0195
:0C0BCE00E4F516C294D293120B6FD2947F
:010BDA0022F8
:040BB100AD07AC06DA
:100BB500E4F50EC294D293AF04120B6FAF05120B7E
:030BC5006FD29458
:010BC800220A
:0E0BDB00C2927F647E00120B91D292020B91A7
:10080000120BDB7F11120BF57F787E00120B917FAC
:10081000B1120BC97F2C120BCE7F2D120BCE7FB2E3
:10082000120BC97F2C120BCE7F2D120BCE7FB31271
:100830000BC97F2C120BCE7F2D120BCE7F01120B1A
:10084000CE7F2C120BCE7F2D120BCE7FB4120BF568
:100850007F07120BCE7FC0120BF57FA2120BCE7F4B
:1008600002120BCE7F84120BCE7FC1120BF57FC517
:10087000120BCE7FC2120BF57F0A120BCEE4FF12D1
:100880000BCE7FC3120BF57F8A120BCE7F2A120B81
:10089000CE7FC4120BF57F8A120BCE7FEE120BCEE9
:1008A0007FC5120BF57F0E120BCE7F36120BF57F34
:1008B000C0120BCE7FE0120BF57F0F120BCE7F1A0A
:1008C000120BCE7F0F120BCE7F18120BCE7F2F1282
:1008D0000BCE7F28120BCE7F20120BCE7F22120B65
:1008E000CE7F1F120BCE7F1B120BCE7F23120BCE9F
:1008F0007F37120BCEE4FF120BCE7F07120BCE7F99
:1009000002120BCE7F10120BCE7FE1120BF57F0F80
:10091000120BCE7F1B120BCE7F0F120BCE7F171246
:100920000BCE7F33120BCE7F2C120BCE7F29120BF6
:10093000CE7F2E120BCE7F30120BCE7F30120BCE1D
:100940007F39120BCE7F3F120BCEE4FF120BCE7F0E
:1009500007120BCE7F03120BCE7F10120BCE7F2A15
:10096000120BF5E4FF120BCE7F02120BCEE4FF1246
:100970000BCE7F82120BCE7F2B120BF5E4FF120BF6
:10098000CE7F03120BCEE4FF120BCE7F83120BCE71
:100990007FF0120BC97FF6120BF5E4FF120BCE7F2E
:0E09A0003A120BF57F05120BCE7F29020BF5E4
:100ABF008F827F2A120BC9AF82EF2402FF120BCE57
:100ACF007F01120BCEEB2402FF120BCE7F2B120BEA
:100ADF00F57F02120BCEED04FF120BCE7F02120B2D
:0D0AEF00CEE51504FF120BCE7F2C020BF597
:040AFC008E088F09C8
:100B000075140075159F7B7F7A00E4FDFCFFFE12D3
:100B10000ABFE4FBEBC394A0748094805019E4FAFC
:100B2000EAC3948074809480500AAF09AE08120B17
:070B3000B10A80EC0B80DD2F
:010B3700229B
:1009AE008F088D098B0A7E00C3EF9480748094802B
:1009BE004003020A6A7C00C3ED94A07480948040C8
:1009CE0003020A6AEF2BFFEE33CF24FFCF34FFFE74
:1009DE00C3EF9480EE64809480400674809508F591
:1009EE000A7E00ED250BFFEE3CCF24FFCF34FFFE39
:1009FE00C3EF94A0EE64809480400674A09509F530
:100A0E000BAF087E00C007E509FD7C00E508250A4E
:100A1E00FFE433CF24FFFBEF34FFFAE509250BFF8C
:100A2E00E433CF24FFF515EF34FFF514D007120A87
:100A3E00BF850B09D3E509940074809480401D8511
:100A4E000A08D3E508940074809480400BAF0DAE75
:0D0A5E000C120BB1150880EA150980D82292
:080B38008F088A098B0AA90548
:100B40007E007C00E5082407FBE433FAE92407F57E
:100B500015E433F514120ABF7B40EBD39400748084
:0E0B60009480400AAF0AAE09120BB11B80EC64
:010B6E002264
:100A6B00120800D295E4FFFE120AFC750B3C750CC4
:100A7B00F8750D007B3C7D327F321209AE750B0889
:100A8B00750CF8750D007B08E4FD7F141209AE752B
:100A9B000B08750CF8750D007B08E4FDFF1209AE11
:100AAB007BE07A077D28E4FF120B387FF47E01127E
:040ABB000B9180F724
:03000000020BE907
:0C0BE900787FE4F6D8FD758116020A6BD7
:00000001FF
