:100C7E000C8808E002260E2006C008C406C008C470
:100C8E000C6004C80C6004C8088C02E006220E80BA
:100C9E000E40046404E004C406600660066006604C
:100D190005330006040400013901014000013200D5
:100D2900013C03013D00013100023E0C7E01380007
:040CD3007F147E000C
:100CD700E4FDFCC3ED9FEC9E5015E4FBFA0BBB0053
:0F0CE700010AEB64FA4A70F50DBD00010C80E4C0
:010CF60022DB
:100CF7007E08EED39400748094804015EF30E704AB
:100D0700D2A18002C2A1C2A0D2A0EF25E0FF1E801F
:010D1700E1FA
:010D180022B8
:0A000E00C2A4C2A3120CF7D2A42270
:050D520012000E7F01FC
:0C0D5700E4F52AC2A4D2A3120CF7D2A427
:010D6300226D
:040D3A00AD07AC064F
:100D3E00E4F522C2A4D2A3AF04120CF7AF05120C35
:030D4E00F7D2A435
:010D5100227F
:0E0D6400C2A27F647E00120CD7D2A2020CD76E
:10055D00120D647F1112000E7F787E00120CD77F72
:10056D00B1120D527F2C120D577F2D120D577FB2E8
:10057D00120D527F2C120D577F2D120D577FB31276
:10058D000D527F2C120D577F2D120D577F01120D1D
:10059D00577F2C120D577F2D120D577FB412000E61
:1005AD007F07120D577FC012000E7FA2120D577FCD
:1005BD0002120D577F84120D577FC112000E7FC599
:1005CD00120D577FC212000E7F0A120D57E4FF1253
:1005DD000D577FC312000E7F8A120D577F2A120D01
:1005ED00577FC412000E7F8A120D577FEE120D57E2
:1005FD007FC512000E7F0E120D577F3612000E7F33
:10060D00C0120D577FE012000E7F0F120D577F1A8B
:10061D00120D577F0F120D577F18120D577F2F1286
:10062D000D577F28120D577F20120D577F22120D67
:10063D00577F1F120D577F1B120D577F23120D571A
:10064D007F37120D57E4FF120D577F07120D577F9D
:10065D0002120D577F10120D577FE112000E7F0F02
:10066D00120D577F1B120D577F0F120D577F17124B
:10067D000D577F33120D577F2C120D577F29120DF9
:10068D00577F2E120D577F30120D577F30120D5799
:10069D007F39120D577F3F120D57E4FF120D577F13
:1006AD0007120D577F03120D577F10120D577F2A1A
:1006BD0012000EE4FF120D577F02120D57E4FF12C8
:1006CD000D577F82120D577F2B12000EE4FF120D76
:1006DD00577F03120D57E4FF120D577F83120D57ED
:1006ED007FF0120D527FF612000EE4FF120D577FB0
:0E06FD003A12000E7F05120D577F2902000EE3
:100C05008F827F2A120D52AF82EF2402FF120D57F9
:100C15007F01120D57EB2402FF120D577F2B120097
:100C25000E7F02120D57ED04FF120D577F02120DB4
:0D0C350057E52904FF120D577F2C02000E19
:040C42008E098F0A7E
:100C460075280075299F7B7F7A00E4FDFCFFFE1264
:100C56000C05E4FBEBC394A0748094805019E4FA6D
:100C6600EAC3948074809480500AAF0AAE09120DCC
:070C76003A0A80EC0B80DD5F
:010C7D002254
:100874008F098D0A8B0B7E00C3EF94807480948063
:1008840040030209307C00C3ED94A074809480403E
:1008940003020930EF2BFFEE33CF24FFCF34FFFEEA
:1008A400C3EF9480EE64809480400674809509F5CB
:1008B4000B7E00ED250CFFEE3CCF24FFCF34FFFE72
:1008C400C3EF94A0EE64809480400674A0950AF56A
:1008D4000CAF097E00C007E50AFD7C00E509250B85
:1008E400FFE433CF24FFFBEF34FFFAE50A250CFFC6
:1008F400E433CF24FFF529EF34FFF528D007120C99
:1009040005850C0AD3E50A940074809480401D8503
:100914000B09D3E509940074809480400BAF0EAEAC
:0D0924000D120D3A150980EA150A80D8223F
:080B39008F1F8A208B21A90502
:100B4100E51F75F008A4F51FE975F008A4F9AF1FBA
:100B51007E00FD7C00E51F2407FBE433FAE924074E
:100B6100F529E433F528120C057B40EBD39400748E
:0F0B7100809480400AAF21AE20120D3A1B80EC19
:010B80002252
:040AED00AD3DAF3C30
:020AF100A90753
:100AF3007B287A00ED75F002A42BFBE5F03AFAE4CB
:100B0300FDEDC3940674809480502A8B828A83C33C
:100B1300740999FFE0FEA3E0A807088005CEC3137C
:100B2300CE13D8F9FF742B2DF8A60774022BFBE420
:050B33003AFA0D80CC30
:010B3800229A
:04093100AD3DAF3CED
:02093500AC070D
:10093700750900750A28750D00750E3FED75F002F3
:10094700A4AEF0250AF50AEE3509F509C374099C2A
:10095700FFAE0DE50EA807088005C333CE33CED80A
:10096700F9F50E8E0DE4FDEDC39406748094805066
:1009770069742B2DF8E6FF7E00C374099CFBEFA872
:1009870003088005C333CE33CED8F9F50C8E0B851B
:100997000A82850983C083C082E50EF4FFE50DF462
:1009A700FEE05EFEA3E05FFFD082D083EEF0A3EF10
:1009B700F0850A82850983C083C082E0450BFFA3C7
:1009C700E0450CD082D083CFF0A3EFF07402250A64
:0A09D700F50AE43509F5090D808DDD
:0109E10022F3
:080A6E008F1F8B208A218922D1
:100A7600752300752400ED75F002A4AEF02524F56B
:100A860024EE3523F523E4FDEDC3940674809480AB
:100A96005054AB20AA21A922120CAE543FFF7E006F
:100AA600C37409951FFCEFA804088005C333CE3331
:100AB600CED8F9FF852482852383C083C082E04E89
:100AC600FBA3E04FD082D083CBF0A3EBF0740125DB
:100AD60022F522E43521F52174022524F524E43596
:060AE60023F5230D80A2A0
:010AEC0022E7
:04001E00AD3DAF3C09
:060022008F098D0A8B0B13
:10002800751A2B751B0EE4F50CAF0CEF3395E0FE3B
:10003800C3EF9406EE648094805013AF1A051AA893
:1000480007E6FF740E250CF8A607050C80DBE4F51F
:100058000CAF0CEF3395E0FEC3EF9406EE6480948A
:1000680080503CE50A2FFFE43EFEEF25E0FFEE332B
:10007800FE74002FF58274003EF583C37409950958
:10008800FFE0FEA3E0A807088005CEC313CE13D86F
:10009800F9543FFF742B250CF8A607050C80B2E530
:1000A8000B6003020158F50CAF0CEF3395E0FEC36B
:1000B800EF9404EE6480948040030202E474332FCA
:1000C800F8E625E0F51CC37404950C242BF8E6C368
:1000D80013FF7434250CF8E65F60647B007A0079BE
:1000E8000EAD0AAF09120A6EE4F53D753C03853A78
:1000F8003E853B3F853F82853E8393F51D74019382
:10010800F51EE4F50CAF0CEF3395E0FEC3EF940455
:10011800EE648094805025E51E540FFFC374039548
:100128000C2433F8A607E51DC4F854F0C868F51D7B
:10013800E51EC4540F48F51E050C80C97F0122C373
:100148007405950C242BF8E6451CF6050C0200B046
:10015800E50BFD7C0064017044F50CAF0CEF3395A2
:10016800E0FEC3EF9404EE6480948040030202E44E
:1001780074332FF8E6FF25E025E0F51CC3740495D9
:100188000CFE242BF8E6FB1313543F5F60037F013A
:1001980022742B2EF8E51C4BF6050C80BEED64028C
:1001A8004C7037F50CAF0CEF3395E0FEC3EF9404B9
:1001B800EE6480948040030202E474332FF8E6FF73
:1001C800F51CC37404950C242BF8E6FE5F60037FCE
:1001D8000122E51C4EF6050C80CBE50B6403600399
:1001E8000202E1853F82853E8375F002E531120CFB
:1001F800C7E493F51D740193F51E0531D3E53194D9
:1002080003748094804003E4F531E4F50CAF0CEFFF
:100218003395E0FEC3EF9404EE648094805025E5A6
:100228001E540FFFC37403950C2433F8A607E51D6D
:10023800C4F854F0C868F51DE51EC4540F48F51EEF
:10024800050C80C9E4F50CAF0CEF3395E0FEC3EF65
:100258009404EE6480948040030202E474332FF81F
:10026800E6FF25E0F51CC37404950CFD242BF8E685
:10027800FCC3135F60561531853F82853E8375F058
:1002880002E531120CC7E493F51D740193F51EE4E1
:10029800F50CAF0CEF3395E0FEC3EF9404EE6480E9
:1002A80094805025E51E540FFFC37403950C243326
:1002B800F8A607E51DC4F854F0C868F51DE51EC486
:1002C800540F48F51E050C80C97F0122742B2DF8A8
:1002D800E51C4CF6050C02024F7F0122751B0E75BA
:1002E8001A2BE4F50CAF0CEF3395E0FEC3EF940640
:1002F800EE648094805018A81BE6FFA81AE66FFFEA
:100308007414250CF8A607051A051B050C80D6E4FD
:10031800F50CAF0CEF3395E0FEC3EF9406EE648066
:100328009480506374142FF8E66058751C20E4F527
:100338000DAF0DEF3395E0FEC3EF9406EE648094A5
:100348008050407414250CF8E6551C602C740E255A
:100358000CF8E6551C6010E509250D04FFE50A2593
:100368000CFDE4FBFA800FE509250D04FFE50A25DD
:100378000CFD7B007AF8120B39E51CC313F51C053C
:090388000D80AE050C808B7F0096
:010391002249
:10039200750900750A00E4F50EF50DC3E50D941418
:1003A20074809480502DE50AFF2402F50AE509FEC7
:1003B2003400F5098F828E83E0FEA3E0FFE50D2570
:1003C200E02450F582E43400F583EEF0A3EFF0056B
:1003D2000D80C8750900750A74750B00750C24E44C
:1003E200F50DC3E50D9412748094805064850A82E1
:1003F200850983E0FEA3E0FFBEFF0FBFFF0C74FE82
:10040200250AF50A74FF3509F509850A82850983EB
:10041200E0FFA3E0850C82850B83CFF0A3EFF0858C
:100422000A82850983E0FEA3E04E7009850C82856D
:100432000B83F0A3F074FE250AF50A74FF3509F563
:100442000974FE250CF50C74FF350BF50B050D80B8
:1004520091E50A650C7004E509650B700302055C01
:10046200750900750A00750B00750C50E4F50DC393
:10047200E50D9414748094805046E50CFF2402F537
:100482000CE50BFE3400F50B8F828E83E0FEA3E0B9
:10049200FFE50AFD2402F50AE509FC3400F5098DA1
:1004A200828C83E06EFEA3E06FFFE50D25E02478E9
:1004B200F582E43400F583EEF0A3EFF0050D80AF92
:1004C200750900750A50750B00750C78E4F50DC3BB
:1004D200E50D941474809480400302055C850C82BF
:1004E200850B83E0FEA3E04E6055750F807510000A
:1004F200E4F50EC3E50E9414748094805041850C8B
:1005020082850B83E0550FFEA3E055104E602185D6
:100512000A82850983E0550FFEA3E055104E60055F
:10052200E4FBFA80047B007AF8AD0DAF0E120B39B2
:10053200E50FC313F50FE51013F510050E80B47423
:1005420002250CF50CE4350BF50B7402250AF50AAD
:0A055200E43509F509050D0204D196
:01055C00227C
:10070B00D2B9758911758C3C758AB0758DA6758BB0
:10071B0028D2AFD2A9D2ABD28CD28E75900FE4F582
:10072B0008C3E508941474809480502CE50825E0E8
:10073B002400F582E43400F58374C0F0A37407F051
:10074B00E50825E02428F582E43400F58374C0F035
:10075B00A37407F0050880C974FF900026F0A3F07E
:10076B0090004EF0A3F012055DD2A5E4FFFE120C33
:10077B0042750CA0750D00750E1F7B10E4FDFF126A
:10078B000874750C08750D00750E1F7B807D98E441
:10079B00FF120874750CA0750D00750E1F7B18E405
:1007AB00FD7F681208747FF47E01120CD7E5406060
:1007BB004E120AEDE4FB12001EEF70071209310511
:1007CB003D8039120392E4F508C3E5089414748054
:1007DB0094805028E50825E02400F582E43400F5E8
:1007EB0083E0FEA3E0FFE50825E02428F582E4344E
:1007FB0000F583EEF0A3EFF0050880CDE4F5402083
:10080B00931AE5326016120CD3209310120AED7B6B
:10081B000112001EEF7005120931153C20921AE5EA
:10082B00326016120CD3209210120AED7B021200CA
:10083B001EEF7005120931053C209118E53260144A
:10084B00120CD320910E120AED7B0312001EEF70D7
:10085B00031209313090030207B8120CD330900306
:09086B000207B87540010207B84C
:03000B00020B8164
:100B8100C0E0C0D075D000C006C007758C3C758A26
:100B9100B00539AF397E00D3EF941674809480503C
:100BA100057532018003753200C3EF941EEE648037
:100BB10094804006753900754001D007D006D0D029
:030BC100D0E0324F
:03001B00020BC411
:100BC400C0E0C0F0C082C0D075D000C007758DA64B
:100BD400758B28D3E5389405748094804003753868
:100BE40000E53875F008A4247EF582E4340CAF8265
:100BF400F53A8F3B0538D007D0D0D082D0F0D0E082
:010C040032BD
:030000000209E210
:0C09E200787FE4F6D8FD758140020A29F8
:100CAE00BB010689828A83E0225002E722BBFE0244
:090CBE00E32289828A83E4932277
:0C0CC700A42582F582E5F03583F5832238
:1009EE0002070BE493A3F8E493A34003F68001F20D
:1009FE0008DFF48029E493A3F85407240CC8C3330A
:100A0E00C4540F4420C8834004F456800146F6DFD8
:100A1E00E4800B0102040810204080900D19E47E42
:100A2E00019360BCA3FF543F30E509541FFEE493CD
:100A3E00A360010ECF54C025E060A840B8E493A394
:100A4E00FAE493A3F8E493A3C8C582C8CAC583CABF
:100A5E00F0A3C8C582C8CAC583CADFE9DEE780BE77
:010D390000B9
:00000001FF
