:100F4A00023900280534000C080800013B04013C62
:010F5A000096
:100F0000E4FDFCC3ED9FEC9E5015E4FBFA0BBB0027
:0F0F1000010AEB64FA4A70F50DBD00010C80E494
:010F1F0022AF
:100EDE007E08EED39400748094804015EF30E704C2
:100EEE00D2918002C291C290D290EF25E0FF1E8077
:010EFE00E112
:010EFF0022D0
:0A0F6A00C294C293120EDED294224C
:050F3800120F6A7F01A9
:0C0F3D00E4F527C294D293120EDED29489
:010F49002285
:040F2000AD07AC0667
:100F2400E4F51FC294D293AF04120EDEAF05120E85
:030F3400DED29476
:010F37002297
:0E0F5C00C2927F647E00120F00D292020F003C
:10080000120F5C7F11120F6A7F787E00120F007F3B
:10081000B1120F387F2C120F3D7F2D120F3D7FB28A
:10082000120F387F2C120F3D7F2D120F3D7FB31218
:100830000F387F2C120F3D7F2D120F3D7F01120FBD
:100840003D7F2C120F3D7F2D120F3D7FB4120F6A9A
:100850007F07120F3D7FC0120F6A7FA2120F3D7FEC
:1008600002120F3D7F84120F3D7FC1120F6A7FC5B8
:10087000120F3D7FC2120F6A7F0A120F3DE4FF1272
:100880000F3D7FC3120F6A7F8A120F3D7F2A120F1E
:100890003D7FC4120F6A7F8A120F3D7FEE120F3D1B
:1008A0007FC5120F6A7F0E120F3D7F36120F6A7FCF
:1008B000C0120F3D7FE0120F6A7F0F120F3D7F1AAB
:1008C000120F3D7F0F120F3D7F18120F3D7F2F1229
:1008D0000F3D7F28120F3D7F20120F3D7F22120F08
:1008E0003D7F1F120F3D7F1B120F3D7F23120F3DD7
:1008F0007F37120F3DE4FF120F3D7F07120F3D7F40
:1009000002120F3D7F10120F3D7FE1120F6A7F0F21
:10091000120F3D7F1B120F3D7F0F120F3D7F1712ED
:100920000F3D7F33120F3D7F2C120F3D7F29120F99
:100930003D7F2E120F3D7F30120F3D7F30120F3D55
:100940007F39120F3D7F3F120F3DE4FF120F3D7FB5
:1009500007120F3D7F03120F3D7F10120F3D7F2ABC
:10096000120F6AE4FF120F3D7F02120F3DE4FF12E7
:100970000F3D7F82120F3D7F2B120F6AE4FF120F93
:100980003D7F03120F3DE4FF120F3D7F83120F3DA9
:100990007FF0120F387FF6120F6AE4FF120F3D7FCF
:0E09A0003A120F6A7F05120F3D7F29020F6A7F
:100E3D008F827F2A120F38AF82EF2402FF120F3DEF
:100E4D007F01120F3DEB2402FF120F3D7F2B120F7E
:100E5D006A7F02120F3DED04FF120F3D7F02120F4C
:0D0E6D003DE52604FF120F3D7F2C020F6AA9
:040E7A008E098F0A44
:100E7E0075250075269F7B7F7A00E4FDFCFFFE1230
:100E8E000E3DE4FBEBC394A0748094805019E4FAF9
:100E9E00EAC3948074809480500AAF0AAE09120F90
:070EAE00200A80EC0B80DD3F
:010EB500221A
:100AED008F3D8D3E8B3F7E00C3EF9480748094804C
:100AFD004003020BA97C00C3ED94A0748094804048
:100B0D0003020BA9EF2BFFEE33CF24FFCF34FFFEF3
:100B1D00C3EF9480EE6480948040067480953DF51B
:100B2D003F7E00ED2540FFEE3CCF24FFCF34FFFE8E
:100B3D00C3EF94A0EE64809480400674A0953EF5BA
:100B4D0040AF3D7E00C007E53EFD7C00E53D253F05
:100B5D00FFE433CF24FFFBEF34FFFAE53E2540FFE2
:100B6D00E433CF24FFF526EF34FFF525D007120E21
:100B7D003D85403ED3E53E940074809480401D85B4
:100B8D003F3DD3E53D940074809480400BAF42AE61
:0D0B9D0041120F20153D80EA153E80D82240
:080DF5008F1C8A1D8B1EA9054D
:100DFD00E51C75F008A4F51CE975F008A4F9AF1C05
:100E0D007E00FD7C00E51C2407FBE433FAE9240792
:100E1D00F526E433F525120E3D7B40EBD39400749B
:0F0E2D00809480400AAF1EAE1D120F201B80EC78
:010E3C002293
:080D32008F098D0A8A0B8B0C5E
:100D3A000509E4F510C3E5109404748094805051B9
:100D4A00E50C540FF50FE50BC4F854F0C868F50B21
:100D5A00E50CC4540F48F50C751108E4F512C3E507
:100D6A00129404748094805024E50F55116014E5A0
:100D7A00092512FFE50A2403C39510FDAB0EAA0D3F
:100D8A00120DF5E511C313F511051280D105108076
:010D9A00A4B4
:010D9B002235
:040CBC008F09A905EE
:100CC0007D287C00E975F002A42DFDE5F03CFCE4F4
:100CD000FBEBC3940674809480501074282BF8E4C6
:100CE000F674022DFDE43CFC0B80E67C007D00E9FF
:100CF00075F002A42DFDE5F03CFCE4FBEBC394068B
:100D000074809480502B8D828C83C374099509FF65
:100D1000E0FEA3E0A807088005CEC313CE13D8F9E0
:100D2000FF742E2BF8A60774022DFDE43CFC0B800B
:010D3000CBF7
:010D3100229F
:020D9C00A907A5
:100D9E00750900750A28ED75F002A4AEF0250AF566
:100DAE000AEE3509F509E4FDEDC3940674809480CE
:100DBE00503474282DF8E6FF7E00C3740999FCEFB9
:100DCE00A804088005C333CE33CED8F9FF850A8236
:100DDE00850983EEF0A3EFF07402250AF50AE435D7
:060DEE0009F5090D80C2A9
:010DF40022DC
:0809AE008F098D0A8A0B8B0CE6
:1009B6007F280509E4F50DE50DFD3395E0FCC3ED53
:1009C6009406EC648094805011AE070FA806E6FEEC
:1009D600740F2DF8A606050D80DD7F14E4F50DE5F0
:1009E6000DFD3395E0FCD3ED9403EC6480948050C8
:1009F600151F7434250DF8E625E0F51BA807E64516
:100A06001BF6050D80D97F33750E05E4F50DE50D52
:100A1600FD3395E0FCD3ED9403EC64809480501E86
:100A26007434250DF8E625E0F51BA807E6451BFE00
:100A36007428250EF8A6061F150E050D80D07F0F0B
:100A4600E4F50DE50DFD3395E0FCC3ED9406EC648D
:100A560080948050177428250DF8E6FEA807E66EE8
:100A6600FE74152DF8A6060F050D80D7E4F50DAF1B
:100A76000DEF3395E0FEC3EF9406EE64809480504C
:100A86006374152FF8E66058751B10E4F50EAF0E6B
:100A9600EF3395E0FEC3EF9406EE648094805040F9
:100AA6007415250DF8E6551B602C740F250DF8E618
:100AB600551B6010E509250E04FFE50A250DFDE42A
:100AC600FBFA800FE509250E04FFE50A250DFDABAF
:100AD6000CAA0B120DF5E51BC313F51B050E80AE14
:060AE600050D808B7F006E
:010AEC0022E7
:100EB600E4FDEDC3940474809480501BEF540FFC42
:100EC60074342DF8A604EEC4F854F0C868FEEFC4D6
:070ED600540F48FF0D80DB03
:010EDD0022F2
:100C360074FF90004CF0A3F090004AF0A3F0120865
:100C460000D295E4FFFE120E7AE53B04FF750DFF18
:100C5600750EE07BC07A887D05120D327FF47E0129
:100C6600120F007D04AF3B120CBC7B007AF87D04AA
:100C7600AF3B1209AE7D04AF3B120D9CE4F5089024
:100C860000287475F0A374A2F0E4FD7F0B120CBC6F
:100C9600E4FD7F0B120D9C900028E07004A3E06435
:100CA600A2700A7BE07A077D03FF120DF57FF47EC2
:060CB60001120F0080F79F
:03000000020BAA46
:0C0BAA00787FE4F6D8FD758142020BF163
:100BB600020C36E493A3F8E493A34003F68001F213
:100BC60008DFF48029E493A3F85407240CC8C33340
:100BD600C4540F4420C8834004F456800146F6DF0F
:100BE600E4800B0102040810204080900F4AE47E46
:100BF600019360BCA3FF543F30E509541FFEE49304
:100C0600A360010ECF54C025E060A840B8E493A3CA
:100C1600FAE493A3F8E493A3C8C582C8CAC583CAF5
:100C2600F0A3C8C582C8CAC583CADFE9DEE780BEAD
:010F5B000095
:00000001FF
