:100C59000C8808E002260E2006C008C406C008C495
:100C69000C6004C80C6004C8088C02E006220E80DF
:100C79000E40046404E004C4066006600660066071
:100CF40005330006040400013901014000013200FB
:100D0400013C03013D00013100023E0C5901380051
:040CAE007F147E0031
:100CB200E4FDFCC3ED9FEC9E5015E4FBFA0BBB0078
:0F0CC200010AEB64FA4A70F50DBD00010C80E4E5
:010CD1002200
:100CD2007E08EED39400748094804015EF30E704D0
:100CE200D2A18002C2A1C2A0D2A0EF25E0FF1E8045
:010CF200E120
:010CF30022DE
:0A000E00C2A4C2A3120CD2D2A42295
:050D2D0012000E7F0121
:0C0D3200E4F52AC2A4D2A3120CD2D2A471
:010D3E002292
:040D1500AD07AC0674
:100D1900E4F522C2A4D2A3AF04120CD2AF05120C7F
:030D2900D2D2A47F
:010D2C0022A4
:0E0D3F00C2A27F647E00120CB2D2A2020CB2DD
:10039200120D3F7F1112000E7F787E00120CB27F89
:1003A200B1120D2D7F2C120D327F2D120D327FB224
:1003B200120D2D7F2C120D327F2D120D327FB312B2
:1003C2000D2D7F2C120D327F2D120D327F01120D59
:1003D200327F2C120D327F2D120D327FB412000E9D
:1003E2007F07120D327FC012000E7FA2120D327FE4
:1003F20002120D327F84120D327FC112000E7FC5B0
:10040200120D327FC212000E7F0A120D32E4FF1269
:100412000D327FC312000E7F8A120D327F2A120D17
:10042200327FC412000E7F8A120D327FEE120D321D
:100432007FC512000E7F0E120D327F3612000E7F24
:10044200C0120D327FE012000E7F0F120D327F1AA2
:10045200120D327F0F120D327F18120D327F2F12C2
:100462000D327F28120D327F20120D327F22120DA3
:10047200327F1F120D327F1B120D327F23120D327B
:100482007F37120D32E4FF120D327F07120D327FD9
:1004920002120D327F10120D327FE112000E7F0F19
:1004A200120D327F1B120D327F0F120D327F171287
:1004B2000D327F33120D327F2C120D327F29120D35
:1004C200327F2E120D327F30120D327F30120D32FA
:1004D2007F39120D327F3F120D32E4FF120D327F4F
:1004E20007120D327F03120D327F10120D327F2A56
:1004F20012000EE4FF120D327F02120D32E4FF12DF
:100502000D327F82120D327F2B12000EE4FF120D8C
:10051200327F03120D32E4FF120D327F83120D324D
:100522007FF0120D2D7FF612000EE4FF120D327FC6
:0E0532003A12000E7F05120D327F2902000ED4
:100BE0008F827F2A120D2DAF82EF2402FF120D3269
:100BF0007F01120D32EB2402FF120D327F2B120007
:100C00000E7F02120D32ED04FF120D327F02120D23
:0D0C100032E52904FF120D327F2C02000E88
:040C1D008E098F0AA3
:100C210075280075299F7B7F7A00E4FDFCFFFE1289
:100C31000BE0E4FBEBC394A0748094805019E4FAB8
:100C4100EAC3948074809480500AAF0AAE09120DF1
:070C5100150A80EC0B80DDA9
:010C58002279
:10084F008F098D0A8B0B7E00C3EF94807480948088
:10085F00400302090B7C00C3ED94A0748094804088
:10086F000302090BEF2BFFEE33CF24FFCF34FFFE34
:10087F00C3EF9480EE64809480400674809509F5F0
:10088F000B7E00ED250CFFEE3CCF24FFCF34FFFE97
:10089F00C3EF94A0EE64809480400674A0950AF58F
:1008AF000CAF097E00C007E50AFD7C00E509250BAA
:1008BF00FFE433CF24FFFBEF34FFFAE50A250CFFEB
:1008CF00E433CF24FFF529EF34FFF528D007120BBF
:1008DF00E0850C0AD3E50A940074809480401D854E
:1008EF000B09D3E509940074809480400BAF0EAED2
:0D08FF000D120D15150980EA150A80D8228A
:080B14008F1F8A208B21A90527
:100B1C00E51F75F008A4F51FE975F008A4F9AF1FDF
:100B2C007E00FD7C00E51F2407FBE433FAE9240773
:100B3C00F529E433F528120BE07B40EBD3940074D9
:0F0B4C00809480400AAF21AE20120D151B80EC63
:010B5B002277
:040AC800AD3DAF3C55
:020ACC00A90778
:100ACE007B287A00ED75F002A42BFBE5F03AFAE4F0
:100ADE00FDEDC3940674809480502A8B828A83C362
:100AEE00740999FFE0FEA3E0A807088005CEC313A2
:100AFE00CE13D8F9FF742B2DF8A60774022BFBE446
:050B0E003AFA0D80CC55
:010B130022BF
:04090C00AD3DAF3C12
:02091000AC0732
:10091200750900750A28750D00750E3FED75F00218
:10092200A4AEF0250AF50AEE3509F509C374099C4F
:10093200FFAE0DE50EA807088005C333CE33CED82F
:10094200F9F50E8E0DE4FDEDC3940674809480508B
:1009520069742B2DF8E6FF7E00C374099CFBEFA897
:1009620003088005C333CE33CED8F9F50C8E0B8540
:100972000A82850983C083C082E50EF4FFE50DF487
:10098200FEE05EFEA3E05FFFD082D083EEF0A3EF35
:10099200F0850A82850983C083C082E0450BFFA3EC
:1009A200E0450CD082D083CFF0A3EFF07402250A89
:0A09B200F50AE43509F5090D808D02
:0109BC002218
:080A49008F1F8B208A218922F6
:100A5100752300752400ED75F002A4AEF02524F590
:100A610024EE3523F523E4FDEDC3940674809480D0
:100A71005054AB20AA21A922120C89543FFF7E00B9
:100A8100C37409951FFCEFA804088005C333CE3356
:100A9100CED8F9FF852482852383C083C082E04EAE
:100AA100FBA3E04FD082D083CBF0A3EBF074012500
:100AB10022F522E43521F52174022524F524E435BB
:060AC10023F5230D80A2C5
:010AC700220C
:04001E00AD3DAF3C09
:060022008F098D0A8B0B13
:10002800751A2B751B0EE4F50CAF0CEF3395E0FE3B
:10003800C3EF9406EE648094805013AF1A051AA893
:1000480007E6FF740E250CF8A607050C80DBE4F51F
:100058000CAF0CEF3395E0FEC3EF9406EE6480948A
:1000680080503CE50A2FFFE43EFEEF25E0FFEE332B
:10007800FE74002FF58274003EF583C37409950958
:10008800FFE0FEA3E0A807088005CEC313CE13D86F
:10009800F9543FFF742B250CF8A607050C80B2E530
:1000A8000B6003020158F50CAF0CEF3395E0FEC36B
:1000B800EF9404EE6480948040030202E474332FCA
:1000C800F8E625E0F51CC37404950C242BF8E6C368
:1000D80013FF7434250CF8E65F60647B007A0079BE
:1000E8000EAD0AAF09120A49E4F53D753C03853A9D
:1000F8003E853B3F853F82853E8393F51D74019382
:10010800F51EE4F50CAF0CEF3395E0FEC3EF940455
:10011800EE648094805025E51E540FFFC374039548
:100128000C2433F8A607E51DC4F854F0C868F51D7B
:10013800E51EC4540F48F51E050C80C97F0122C373
:100148007405950C242BF8E6451CF6050C0200B046
:10015800E50BFD7C0064017044F50CAF0CEF3395A2
:10016800E0FEC3EF9404EE6480948040030202E44E
:1001780074332FF8E6FF25E025E0F51CC3740495D9
:100188000CFE242BF8E6FB1313543F5F60037F013A
:1001980022742B2EF8E51C4BF6050C80BEED64028C
:1001A8004C7037F50CAF0CEF3395E0FEC3EF9404B9
:1001B800EE6480948040030202E474332FF8E6FF73
:1001C800F51CC37404950C242BF8E6FE5F60037FCE
:1001D8000122E51C4EF6050C80CBE50B6403600399
:1001E8000202E1853F82853E8375F002E531120CFB
:1001F800A2E493F51D740193F51E0531D3E53194FE
:1002080003748094804003E4F531E4F50CAF0CEFFF
:100218003395E0FEC3EF9404EE648094805025E5A6
:100228001E540FFFC37403950C2433F8A607E51D6D
:10023800C4F854F0C868F51DE51EC4540F48F51EEF
:10024800050C80C9E4F50CAF0CEF3395E0FEC3EF65
:100258009404EE6480948040030202E474332FF81F
:10026800E6FF25E0F51CC37404950CFD242BF8E685
:10027800FCC3135F60561531853F82853E8375F058
:1002880002E531120CA2E493F51D740193F51EE406
:10029800F50CAF0CEF3395E0FEC3EF9404EE6480E9
:1002A80094805025E51E540FFFC37403950C243326
:1002B800F8A607E51DC4F854F0C868F51DE51EC486
:1002C800540F48F51E050C80C97F0122742B2DF8A8
:1002D800E51C4CF6050C02024F7F0122751B0E75BA
:1002E8001A2BE4F50CAF0CEF3395E0FEC3EF940640
:1002F800EE648094805018A81BE6FFA81AE66FFFEA
:100308007414250CF8A607051A051B050C80D6E4FD
:10031800F50CAF0CEF3395E0FEC3EF9406EE648066
:100328009480506374142FF8E66058751C20E4F527
:100338000DAF0DEF3395E0FEC3EF9406EE648094A5
:100348008050407414250CF8E6551C602C740E255A
:100358000CF8E6551C6010E509250D04FFE50A2593
:100368000CFDE4FBFA800FE509250D04FFE50A25DD
:100378000CFD7B007AF8120B14E51CC313F51C0561
:090388000D80AE050C808B7F0096
:010391002249
:10054000750900750A00E4F50EF50DC3E50D941468
:1005500074809480502DE50AFF2402F50AE509FE17
:100560003400F5098F828E83E0FEA3E0FFE50D25C0
:10057000E02450F582E43400F583EEF0A3EFF005BB
:100580000D80C8750900750A74750B00750C24E49C
:10059000F50DC3E50D9411748094805046850A8250
:1005A000850983E0FEA3E0FFBEFF11BFFF0E74FECE
:1005B000250AF50A74FF3509F50980E1850C828565
:1005C0000B83EEF0A3EFF074FE250AF50A74FF35F5
:1005D00009F50974FE250CF50C74FF350BF50B05B8
:1005E0000D80AFE50A650C7004E509650B70030228
:1005F00006EC750900750A00750B00750C50E4F5E2
:100600000DC3E50D9414748094805046E50CFF24CE
:1006100002F50CE50BFE3400F50B8F828E83E0FEB5
:10062000A3E0FFE50AFD2402F50AE509FC3400F524
:10063000098D828C83E06EFEA3E06FFFE50D25E05F
:100640002478F582E43400F583EEF0A3EFF0050D95
:1006500080AF750900750A50750B00750C78E4F5CC
:100660000DC3E50D94147480948040030206EC855C
:100670000C82850B83E0FEA3E04E6055750F8075FC
:100680001000E4F50EC3E50E94147480948050417C
:10069000850C82850B83E0550FFEA3E055104E605C
:1006A00021850A82850983E0550FFEA3E055104E8F
:1006B0006005E4FBFA80047B007AF8AD0DAF0E1202
:1006C0000B14E50FC313F50FE51013F510050E809D
:1006D000B47402250CF50CE4350BF50B7402250AF5
:0C06E000F50AE43509F509050D02066174
:0106EC0022EB
:1006ED00D2B9758911758C3C758AB0758DA6758BCF
:1006FD0028D2AFD2A9D2ABD28CD28E75900FE4F5A1
:10070D0008C3E508941474809480502CE50825E006
:10071D002400F582E43400F58374C0F0A37407F06F
:10072D00E50825E02428F582E43400F58374C0F053
:10073D00A37407F0050880C974FF900026F0A3F09C
:10074D0090004EF0A3F0120392D2A5E4FFFE120C1E
:10075D001D750CA0750D00750E1F7B10E4FDFF12AD
:10076D00084F750C08750D00750E1F7B807D98E484
:10077D00FF12084F750CA0750D00750E1F7B18E448
:10078D00FD7F6812084FE540604E120AC8E4FB1267
:10079D00001EEF700712090C053D8039120540E46B
:1007AD00F508C3E5089414748094805028E5082555
:1007BD00E02400F582E43400F583E0FEA3E0FFE5DC
:1007CD000825E02428F582E43400F583EEF0A3EF4C
:1007DD00F0050880CDE4F54020931AE5326016123D
:1007ED000CAE209310120AC87B0112001EEF70058B
:1007FD0012090C153C20921AE5326016120CAE202F
:10080D009210120AC87B0212001EEF700512090C1D
:10081D00053C209118E5326014120CAE20910E1299
:10082D000AC87B0312001EEF700312090C309003EF
:10083D00020793120CAE309003020793754001022C
:02084D0007930F
:03000B00020B5C89
:100B5C00C0E0C0D075D000C006C007758C3C758A4B
:100B6C00B00539AF397E00D3EF9416748094805061
:100B7C00057532018003753200C3EF941EEE64805C
:100B8C0094804006753900754001D007D006D0D04E
:030B9C00D0E03274
:03001B00020B9F36
:100B9F00C0E0C0F0C082C0D075D000C007758DA670
:100BAF00758B28D3E538940574809480400375388D
:100BBF0000E53875F008A42459F582E4340CAF82AF
:100BCF00F53A8F3B0538D007D0D0D082D0F0D0E0A7
:010BDF0032E3
:030000000209BD35
:0C09BD00787FE4F6D8FD758140020A0442
:100C8900BB010689828A83E0225002E722BBFE0269
:090C9900E32289828A83E493229C
:0C0CA200A42582F582E5F03583F583225D
:1009C9000206EDE493A3F8E493A34003F68001F251
:1009D90008DFF48029E493A3F85407240CC8C3332F
:1009E900C4540F4420C8834004F456800146F6DFFE
:1009F900E4800B0102040810204080900CF4E47E8E
:100A0900019360BCA3FF543F30E509541FFEE493F2
:100A1900A360010ECF54C025E060A840B8E493A3B9
:100A2900FAE493A3F8E493A3C8C582C8CAC583CAE4
:100A3900F0A3C8C582C8CAC583CADFE9DEE780BE9C
:010D140000DE
:00000001FF
