:100C2B00E4FDFCC3ED9FEC9E5015E4FBFA0BBB00FF
:0F0C3B00010AEB64FA4A70F50DBD00010C80E46C
:010C4A002287
:100C09007E08EED39400748094804015EF30E70499
:100C1900D2918002C291C290D290EF25E0FF1E804E
:010C2900E1E9
:010C2A0022A7
:0A0C8F00C294C293120C09D2942201
:050C6300120C8F7F015F
:0C0C6800E4F51DC294D293120C09D29442
:010C7400225D
:040C4B00AD07AC063F
:100C4F00E4F515C294D293AF04120C09AF05120C40
:030C5F0009D29423
:010C6200226F
:0E0C7500C2927F647E00120C2BD292020C2BD6
:10080000120C757F11120C8F7F787E00120C2B7FDB
:10081000B1120C637F2C120C687F2D120C687FB212
:10082000120C637F2C120C687F2D120C687FB312A0
:100830000C637F2C120C687F2D120C687F01120C48
:10084000687F2C120C687F2D120C687FB4120C8FFD
:100850007F07120C687FC0120C8F7FA2120C687F7A
:1008600002120C687F84120C687FC1120C8F7FC546
:10087000120C687FC2120C8F7F0A120C68E4FF1200
:100880000C687FC3120C8F7F8A120C687F2A120CAF
:10089000687FC4120C8F7F8A120C687FEE120C687E
:1008A0007FC5120C8F7F0E120C687F36120C8F7F63
:1008B000C0120C687FE0120C8F7F0F120C687F1A39
:1008C000120C687F0F120C687F18120C687F2F12B1
:1008D0000C687F28120C687F20120C687F22120C93
:1008E000687F1F120C687F1B120C687F23120C6834
:1008F0007F37120C68E4FF120C687F07120C687FC8
:1009000002120C687F10120C687FE1120C8F7F0FAF
:10091000120C687F1B120C687F0F120C687F171275
:100920000C687F33120C687F2C120C687F29120C24
:10093000687F2E120C687F30120C687F30120C68B2
:100940007F39120C687F3F120C68E4FF120C687F3D
:1009500007120C687F03120C687F10120C687F2A44
:10096000120C8FE4FF120C687F02120C68E4FF1275
:100970000C687F82120C687F2B120C8FE4FF120C24
:10098000687F03120C68E4FF120C687F83120C6806
:100990007FF0120C637FF6120C8FE4FF120C687F5D
:0E09A0003A120C8F7F05120C687F29020C8F13
:100B60008F827F2A120C63AF82EF2402FF120C687F
:100B70007F01120C68EB2402FF120C687F2B120C11
:100B80008F7F02120C68ED04FF120C687F02120CBA
:0D0B900068E51C04FF120C687F2C020C8F1E
:040B9D008E088F0926
:100BA100751B00751C9F7B7F7A00E4FDFCFFFE1224
:100BB1000B60E4FBEBC394A0748094805019E4FAB9
:100BC100EAC3948074809480500AAF09AE08120C75
:070BD1004B0A80EC0B80DDF4
:010BD80022FA
:1009AE008F268D278B287E00C3EF948074809480D1
:1009BE004003020A6A7C00C3ED94A07480948040C8
:1009CE0003020A6AEF2BFFEE33CF24FFCF34FFFE74
:1009DE00C3EF9480EE64809480400674809526F573
:1009EE00287E00ED2529FFEE3CCF24FFCF34FFFEFD
:1009FE00C3EF94A0EE64809480400674A09527F512
:100A0E0029AF267E00C007E527FD7C00E5262528B8
:100A1E00FFE433CF24FFFBEF34FFFAE5272529FF50
:100A2E00E433CF24FFF51CEF34FFF51BD007120B78
:100A3E0060852927D3E527940074809480401D8516
:100A4E002826D3E526940074809480400BAF2BAEFD
:0D0A5E002A120C4B152680EA152780D8229D
:080AD3008F128A138B14A90590
:100ADB00E51275F008A4F512E975F008A4F9AF1248
:100AEB007E00FD7C00E5122407FBE433FAE92407C2
:100AFB00F51CE433F51B120B607B40EBD3940074B5
:0F0B0B00809480400AAF14AE13120C4B1B80EC89
:010B1A0022B8
:080A6B008F088D098A0A8B0B2C
:100A7300E4F50FC3E50F9404748094805051E50BA3
:100A8300540FF50EE50AC4F854F0C868F50AE50BEF
:100A9300C4540F48F50B751008E4F511C3E5119420
:100AA30004748094805024E50E55106014E50825E5
:100AB30011FFE5092403C3950FFDAB0DAA0C120A20
:0F0AC300D3E510C313F510051180D1050F80A4E2
:010AD2002201
:100B1B00752400EF540FF525EEC4F854F0C868FEA9
:100B2B00EFC4540F48FF752200540FF523EEC4F8A1
:100B3B0054F0C868FEEFC4540F48FF752000540FE3
:100B4B00F521EEC4F854F0C8EFC4540F48751E00DD
:040B5B00540FF51F1F
:010B5F002273
:100BD900120800D295E4FFFE120B9D7BE07A077D97
:100BE90003E4FF120AD3750CFF750DE07BC07A8808
:100BF9007D087F08120A6B7FF47E01120C2B80F7A7
:03000000020C836C
:0C0C8300787FE4F6D8FD75812B020BD9B8
:00000001FF
