:100F150002330000052E000C0808000135040136D7
:010F250000CB
:100ECB00E4FDFCC3ED9FEC9E5015E4FBFA0BBB005D
:0F0EDB00010AEB64FA4A70F50DBD00010C80E4CA
:010EEA0022E5
:100EA9007E08EED39400748094804015EF30E704F7
:100EB900D2918002C291C290D290EF25E0FF1E80AC
:010EC900E147
:010ECA002205
:0A0F3500C294C293120EA9D29422B6
:050F0300120F357F0113
:0C0F0800E4F527C294D293120EA9D294F3
:010F140022BA
:040EEB00AD07AC069D
:100EEF00E4F51FC294D293AF04120EA9AF05120EF0
:030EFF00A9D294E1
:010F020022CC
:0E0F2700C2927F647E00120ECBD292020ECBDD
:10080000120F277F11120F357F787E00120ECB7FDB
:10081000B1120F037F2C120F087F2D120F087FB229
:10082000120F037F2C120F087F2D120F087FB312B7
:100830000F037F2C120F087F2D120F087F01120F5C
:10084000087F2C120F087F2D120F087FB4120F356E
:100850007F07120F087FC0120F357FA2120F087F8B
:1008600002120F087F84120F087FC1120F357FC557
:10087000120F087FC2120F357F0A120F08E4FF1211
:100880000F087FC3120F357F8A120F087F2A120FBD
:10089000087FC4120F357F8A120F087FEE120F08EF
:1008A0007FC5120F357F0E120F087F36120F357F6E
:1008B000C0120F087FE0120F357F0F120F087F1A4A
:1008C000120F087F0F120F087F18120F087F2F12C8
:1008D0000F087F28120F087F20120F087F22120FA7
:1008E000087F1F120F087F1B120F087F23120F08AB
:1008F0007F37120F08E4FF120F087F07120F087FDF
:1009000002120F087F10120F087FE1120F357F0FC0
:10091000120F087F1B120F087F0F120F087F17128C
:100920000F087F33120F087F2C120F087F29120F38
:10093000087F2E120F087F30120F087F30120F0829
:100940007F39120F087F3F120F08E4FF120F087F54
:1009500007120F087F03120F087F10120F087F2A5B
:10096000120F35E4FF120F087F02120F08E4FF1286
:100970000F087F82120F087F2B120F35E4FF120F32
:10098000087F03120F08E4FF120F087F83120F087D
:100990007FF0120F037FF6120F35E4FF120F087F6E
:0E09A0003A120F357F05120F087F29020F351E
:100E08008F827F2A120F03AF82EF2402FF120F088E
:100E18007F01120F08EB2402FF120F087F2B120F1D
:100E2800357F02120F08ED04FF120F087F02120F20
:0D0E380008E52604FF120F087F2C020F357D
:040E45008E098F0A79
:100E490075250075269F7B7F7A00E4FDFCFFFE1265
:100E59000E08E4FBEBC394A0748094805019E4FA63
:100E6900EAC3948074809480500AAF0AAE09120EC6
:070E7900EB0A80EC0B80DDA9
:010E8000224F
:100AF0008F378D388B397E00C3EF9480748094805B
:100B00004003020BAC7C00C3ED94A0748094804041
:100B100003020BACEF2BFFEE33CF24FFCF34FFFEED
:100B2000C3EF9480EE64809480400674809537F51E
:100B3000397E00ED253AFFEE3CCF24FFCF34FFFE97
:100B4000C3EF94A0EE64809480400674A09538F5BD
:100B50003AAF377E00C007E538FD7C00E537253920
:100B6000FFE433CF24FFFBEF34FFFAE538253AFFEB
:100B7000E433CF24FFF526EF34FFF525D007120E1E
:100B800008853A38D3E538940074809480401D85F8
:100B90003937D3E537940074809480400BAF3CAE76
:0D0BA0003B120EEB153780EA153880D82285
:080DC0008F1C8A1D8B1EA90582
:100DC800E51C75F008A4F51CE975F008A4F9AF1C3A
:100DD8007E00FD7C00E51C2407FBE433FAE92407C8
:100DE800F526E433F525120E087B40EBD394007406
:0F0DF800809480400AAF1EAE1D120EEB1B80ECE4
:010E070022C8
:080CA7008F098D0A8A0B8B0CEA
:100CAF00E4F510C3E5109404748094805051E50C62
:100CBF00540FF50FE50BC4F854F0C868F50BE50CAD
:100CCF00C4540F48F50C751108E4F512C3E51294DE
:100CDF0004748094805024E50F55116014E50925A4
:100CEF0012FFE50A2403C39510FDAB0EAA0D120DDA
:0F0CFF00C0E511C313F511051280D1051080A4B3
:010D0E0022C2
:020D7600A907CB
:100D78007B007A00ED75F002A42BFBE5F03AFAE46B
:100D8800FDEDC3940674809480502C8B828A83C3B3
:100D9800740599FFE0FEA3E0A807088005CEC313F9
:100DA800CE13D8F954C0FF74282DF8A60774022B67
:070DB800FBE43AFA0D80CACA
:010DBF002211
:020D0F00A90732
:100D1100750900750A00ED75F002A4AEF0250AF51B
:100D21000AEE3509F509E4FDEDC39406748094805B
:100D3100504274282DF8E6FF7E00C3740599FCEF3C
:100D4100A804088005C333CE33CED8F9FF850A82C3
:100D5100850983C083C082E04EFBA3E04FD082D0DF
:100D610083CBF0A3EBF07402250AF50AE43509F50B
:040D7100090D80B434
:010D7500225B
:0809AE008F098D0A8A0B8B0CE6
:1009B6007F28E4F50DE50DFD3395E0FCC3ED9406C7
:1009C600EC648094805011AE070FA806E6FE740F03
:1009D6002DF8A606050D80DD7F14E4F50DE50DFD69
:1009E6003395E0FCD3ED9403EC6480948050151F9E
:1009F600742E250DF8E625E0F51BA807E6451BF63F
:100A0600050D80D97F2DE4F50DE50DFD3395E0FC50
:100A1600D3ED9403EC648094805026742E250DF853
:100A2600E625E0F51BA807E6FE551B7006E50A64F9
:100A36001170037F0122A807E51B4EF61F050D80E6
:100A4600C87F0FE4F50DE50DFD3395E0FCC3ED948D
:100A560006EC6480948050177428250DF8E6FEA8ED
:100A660007E66EFE74152DF8A6060F050D80D7E471
:100A7600F50DAF0DEF3395E0FEC3EF9406EE6480FF
:100A86009480506374152FF8E66058751B10E4F5D2
:100A96000EAF0EEF3395E0FEC3EF9406EE6480943E
:100AA6008050407415250DF8E6551B602C740F25F3
:100AB6000DF8E6551B6010E509250E04FFE50A252D
:100AC6000DFDE4FBFA800FE509250E04FFE50A2576
:100AD6000DFDAB0CAA0B120DC0E51BC313F51B05D0
:090AE6000E80AE050D808B7F002F
:010AEF0022E4
:100E8100E4FDEDC3940474809480501BEF540FFC77
:100E9100742E2DF8A604EEC4F854F0C868FEEFC411
:070EA100540F48FF0D80DB38
:010EA8002227
:100C3900120800D295E4FFFE120E45E53504FF7552
:100C49000DFF750EE07BC07A887D05120CA77FF435
:100C59007E01120ECB7D04AF35120D767B007AF83A
:100C69007D04AF351209AE7D04AF35120D0FE4F5E1
:100C790008E5082405FDAF35120D76E5082405FDC4
:100C89007B007AF8AF351209AEE5082405FDAF35CA
:0E0C9900120D0F7FDC7E05120ECB050880D3F6
:03000000020BAD43
:0C0BAD00787FE4F6D8FD75813C020BF463
:100BB900020C39E493A3F8E493A34003F68001F20D
:100BC90008DFF48029E493A3F85407240CC8C3333D
:100BD900C4540F4420C8834004F456800146F6DF0C
:100BE900E4800B0102040810204080900F15E47E78
:100BF900019360BCA3FF543F30E509541FFEE49301
:100C0900A360010ECF54C025E060A840B8E493A3C7
:100C1900FAE493A3F8E493A3C8C582C8CAC583CAF2
:100C2900F0A3C8C582C8CAC583CADFE9DEE780BEAA
:010F260000CA
:00000001FF
