:100A78000C8808E002260E2006C008C406C008C478
:100A88000C6004C80C6004C8088C02E006220E80C2
:100A98000E40046404E004C4066006600660066054
:100B130005330006040400013901014000013200DD
:100B2300013C06013D00013100023E0A7801380014
:040ACD007F147E0014
:100AD100E4FDFCC3ED9FEC9E5015E4FBFA0BBB005B
:0F0AE100010AEB64FA4A70F50DBD00010C80E4C8
:010AF00022E3
:100AF1007E08EED39400748094804015EF30E704B3
:100B0100D2A18002C2A1C2A0D2A0EF25E0FF1E8027
:010B1100E102
:010B120022C0
:0A000E00C2A4C2A3120AF1D2A42278
:050B4C0012000E7F0104
:0C0B5100E4F52AC2A4D2A3120AF1D2A437
:010B5D002275
:040B3400AD07AC0657
:100B3800E4F522C2A4D2A3AF04120AF1AF05120A47
:030B4800F1D2A443
:010B4B002287
:0E0B5E00C2A27F647E00120AD1D2A2020AD186
:10039200120B5E7F1112000E7F787E00120AD17F4F
:1003A200B1120B4C7F2C120B517F2D120B517FB2CD
:1003B200120B4C7F2C120B517F2D120B517FB3125B
:1003C2000B4C7F2C120B517F2D120B517F01120B04
:1003D200517F2C120B517F2D120B517FB412000E44
:1003E2007F07120B517FC012000E7FA2120B517FAA
:1003F20002120B517F84120B517FC112000E7FC576
:10040200120B517FC212000E7F0A120B51E4FF122F
:100412000B517FC312000E7F8A120B517F2A120BDF
:10042200517FC412000E7F8A120B517FEE120B51C4
:100432007FC512000E7F0E120B517F3612000E7F07
:10044200C0120B517FE012000E7F0F120B517F1A68
:10045200120B517F0F120B517F18120B517F2F126B
:100462000B517F28120B517F20120B517F22120B4E
:10047200517F1F120B517F1B120B517F23120B5105
:100482007F37120B51E4FF120B517F07120B517F82
:1004920002120B517F10120B517FE112000E7F0FDF
:1004A200120B517F1B120B517F0F120B517F171230
:1004B2000B517F33120B517F2C120B517F29120BE0
:1004C200517F2E120B517F30120B517F30120B5184
:1004D2007F39120B517F3F120B51E4FF120B517FF8
:1004E20007120B517F03120B517F10120B517F2AFF
:1004F20012000EE4FF120B517F02120B51E4FF12A5
:100502000B517F82120B517F2B12000EE4FF120B54
:10051200517F03120B51E4FF120B517F83120B51D7
:100522007FF0120B4C7FF612000EE4FF120B517F8C
:0E0532003A12000E7F05120B517F2902000EB7
:1009FF008F827F2A120B4CAF82EF2402FF120B5112
:100A0F007F01120B51EB2402FF120B517F2B1200AF
:100A1F000E7F02120B51ED04FF120B517F02120BCE
:0D0A2F0051E52904FF120B517F2C02000E2F
:040A3C008E478F480A
:100A400075280075299F7B7F7A00E4FDFCFFFE126C
:100A500009FFE4FBEBC394A0748094805019E4FA7E
:100A6000EAC3948074809480500AAF48AE47120B5A
:070A7000340A80EC0B80DD6D
:010A7700225C
:10066E008F418D428B437E00C3EF948074809480C3
:10067E00400302072A7C00C3ED94A074809480404E
:10068E000302072AEF2BFFEE33CF24FFCF34FFFEFA
:10069E00C3EF9480EE64809480400674809541F59B
:1006AE00437E00ED2544FFEE3CCF24FFCF34FFFE0A
:1006BE00C3EF94A0EE64809480400674A09542F53A
:1006CE0044AF417E00C007E542FD7C00E541254375
:1006DE00FFE433CF24FFFBEF34FFFAE5422544FF5E
:1006EE00E433CF24FFF529EF34FFF528D0071209A4
:1006FE00FF854442D3E542940074809480401D856A
:10070E004341D3E541940074809480400BAF46AED4
:0D071E0045120B34154180EA154280D822A7
:080933008F1F8A208B21A9050A
:10093B00E51F75F008A4F51FE975F008A4F9AF1FC2
:10094B007E00FD7C00E51F2407FBE433FAE9240756
:10095B00F529E433F5281209FF7B40EBD39400749F
:0F096B00809480400AAF21AE20120B341B80EC29
:01097A00225A
:0408E700AD3DAF3C38
:0208EB00A9075B
:1008ED007B287A00ED75F002A42BFBE5F03AFAE4D3
:1008FD00FDEDC3940674809480502A8B828A83C345
:10090D00740999FFE0FEA3E0A807088005CEC31384
:10091D00CE13D8F9FF742B2DF8A60774022BFBE428
:05092D003AFA0D80CC38
:0109320022A2
:04072B00AD3DAF3CF5
:02072F00AC0715
:10073100750900750A28750D00750E3FED75F002FB
:10074100A4AEF0250AF50AEE3509F509C374099C32
:10075100FFAE0DE50EA807088005C333CE33CED812
:10076100F9F50E8E0DE4FDEDC3940674809480506E
:1007710069742B2DF8E6FF7E00C374099CFBEFA87A
:1007810003088005C333CE33CED8F9F50C8E0B8523
:100791000A82850983C083C082E50EF4FFE50DF46A
:1007A100FEE05EFEA3E05FFFD082D083EEF0A3EF18
:1007B100F0850A82850983C083C082E0450BFFA3CF
:1007C100E0450CD082D083CFF0A3EFF07402250A6C
:0A07D100F50AE43509F5090D808DE5
:0107DB0022FB
:080868008F1F8B208A218922D9
:10087000752300752400ED75F002A4AEF02524F573
:1008800024EE3523F523E4FDEDC3940674809480B3
:100890005054AB20AA21A922120AA8543FFF7E007F
:1008A000C37409951FFCEFA804088005C333CE3339
:1008B000CED8F9FF852482852383C083C082E04E91
:1008C000FBA3E04FD082D083CBF0A3EBF0740125E3
:1008D00022F522E43521F52174022524F524E4359E
:0608E00023F5230D80A2A8
:0108E60022EF
:04001E00AD3DAF3C09
:060022008F098D0A8B0B13
:10002800751A2B751B0EE4F50CAF0CEF3395E0FE3B
:10003800C3EF9406EE648094805013AF1A051AA893
:1000480007E6FF740E250CF8A607050C80DBE4F51F
:100058000CAF0CEF3395E0FEC3EF9406EE6480948A
:1000680080503CE50A2FFFE43EFEEF25E0FFEE332B
:10007800FE74002FF58274003EF583C37409950958
:10008800FFE0FEA3E0A807088005CEC313CE13D86F
:10009800F9543FFF742B250CF8A607050C80B2E530
:1000A8000B6003020158F50CAF0CEF3395E0FEC36B
:1000B800EF9404EE6480948040030202E474332FCA
:1000C800F8E625E0F51CC37404950C242BF8E6C368
:1000D80013FF7434250CF8E65F60647B007A0079BE
:1000E8000EAD0AAF09120868E4F53D753C03853A80
:1000F8003E853B3F853F82853E8393F51D74019382
:10010800F51EE4F50CAF0CEF3395E0FEC3EF940455
:10011800EE648094805025E51E540FFFC374039548
:100128000C2433F8A607E51DC4F854F0C868F51D7B
:10013800E51EC4540F48F51E050C80C97F0122C373
:100148007405950C242BF8E6451CF6050C0200B046
:10015800E50BFD7C0064017044F50CAF0CEF3395A2
:10016800E0FEC3EF9404EE6480948040030202E44E
:1001780074332FF8E6FF25E025E0F51CC3740495D9
:100188000CFE242BF8E6FB1313543F5F60037F013A
:1001980022742B2EF8E51C4BF6050C80BEED64028C
:1001A8004C7037F50CAF0CEF3395E0FEC3EF9404B9
:1001B800EE6480948040030202E474332FF8E6FF73
:1001C800F51CC37404950C242BF8E6FE5F60037FCE
:1001D8000122E51C4EF6050C80CBE50B6403600399
:1001E8000202E1853F82853E8375F002E531120AFD
:1001F800C1E493F51D740193F51E0531D3E53194DF
:1002080003748094804003E4F531E4F50CAF0CEFFF
:100218003395E0FEC3EF9404EE648094805025E5A6
:100228001E540FFFC37403950C2433F8A607E51D6D
:10023800C4F854F0C868F51DE51EC4540F48F51EEF
:10024800050C80C9E4F50CAF0CEF3395E0FEC3EF65
:100258009404EE6480948040030202E474332FF81F
:10026800E6FF25E0F51CC37404950CFD242BF8E685
:10027800FCC3135F60561531853F82853E8375F058
:1002880002E531120AC1E493F51D740193F51EE4E9
:10029800F50CAF0CEF3395E0FEC3EF9404EE6480E9
:1002A80094805025E51E540FFFC37403950C243326
:1002B800F8A607E51DC4F854F0C868F51DE51EC486
:1002C800540F48F51E050C80C97F0122742B2DF8A8
:1002D800E51C4CF6050C02024F7F0122751B0E75BA
:1002E8001A2BE4F50CAF0CEF3395E0FEC3EF940640
:1002F800EE648094805018A81BE6FFA81AE66FFFEA
:100308007414250CF8A607051A051B050C80D6E4FD
:10031800F50CAF0CEF3395E0FEC3EF9406EE648066
:100328009480506374142FF8E66058751C20E4F527
:100338000DAF0DEF3395E0FEC3EF9406EE648094A5
:100348008050407414250CF8E6551C602C740E255A
:100358000CF8E6551C6010E509250D04FFE50A2593
:100368000CFDE4FBFA800FE509250D04FFE50A25DD
:100378000CFD7B007AF8120933E51CC313F51C0544
:090388000D80AE050C808B7F0096
:010391002249
:10054000D2B9758911758C3C758AB0758DA6758B7D
:1005500028D2AFD2A9D2ABD28CD28E75900FE4F54F
:1005600008C3E508941474809480502CE50825E0B5
:100570002400F582E43400F58374C0F0A37407F01E
:10058000E50825E02428F582E43400F58374C0F002
:10059000A37407F0050880C974FF900026F0A3F04B
:1005A00090004EF0A3F0120392D2A57FF47E0112C8
:1005B0000AD11208E7E540604B1208E7E4FB12009D
:1005C0001EEF700712072B053D8036E4F508C3E5E2
:1005D000089414748094805028E50825E02400F5E0
:1005E00082E43400F583E0FEA3E0FFE50825E02483
:1005F00028F582E43400F583EEF0A3EFF0050880DF
:10060000CDE4F54020931AE5326016120ACD20930E
:10061000101208E77B0112001EEF700512072B1560
:100620003C20921AE5326016120ACD209210120870
:10063000E77B0212001EEF700512072B053C20918C
:1006400018E5326014120ACD20910E1208E77B03E0
:1006500012001EEF700312072B3090030205B51233
:0E0660000ACD3090030205B57540010205B5C4
:03000B0002097B6C
:10097B00C0E0C0D075D000C006C007758C3C758A2E
:10098B00B00539AF397E00D3EF9416748094805044
:10099B00057532018003753200C3EF941EEE64803F
:1009AB0094804006753900754001D007D006D0D031
:0309BB00D0E03257
:03001B000209BE19
:1009BE00C0E0C0F0C082C0D075D000C007758DA653
:1009CE00758B28D3E5389405748094804003753870
:1009DE0000E53875F008A42478F582E4340AAF8275
:1009EE00F53A8F3B0538D007D0D0D082D0F0D0E08A
:0109FE0032C6
:030000000207DC18
:0C07DC00787FE4F6D8FD75814802082300
:100AA800BB010689828A83E0225002E722BBFE024C
:090AB800E32289828A83E493227F
:0C0AC100A42582F582E5F03583F5832240
:1007E800020540E493A3F8E493A34003F68001F2E2
:1007F80008DFF48029E493A3F85407240CC8C33312
:10080800C4540F4420C8834004F456800146F6DFE0
:10081800E4800B0102040810204080900B13E47E52
:10082800019360BCA3FF543F30E509541FFEE493D5
:10083800A360010ECF54C025E060A840B8E493A39C
:10084800FAE493A3F8E493A3C8C582C8CAC583CAC7
:10085800F0A3C8C582C8CAC583CADFE9DEE780BE7F
:010B330000C1
:00000001FF
