:1009D5000C8808E002260E2006C008C406C008C41C
:1009E5000C6004C80C6004C8088C02E006220E8066
:1009F5000E40046404E004C40660066006600660F8
:100A700005310006040400013601013B000130008D
:0D0A8000013706013800012F00023909D5A9
:040A2A007F147E00B7
:100A2E00E4FDFCC3ED9FEC9E5015E4FBFA0BBB00FE
:0F0A3E00010AEB64FA4A70F50DBD00010C80E46B
:010A4D002286
:100A4E007E08EED39400748094804015EF30E70456
:100A5E00D2A18002C2A1C2A0D2A0EF25E0FF1E80CB
:010A6E00E1A6
:010A6F002264
:0A0AC600C2A4C2A3120A4ED2A42259
:050AA600120AC67F01E9
:0C0AAB00E4F528C2A4D2A3120A4ED2A483
:010AB700221C
:040A8E00AD07AC06FE
:100A9200E4F520C2A4D2A3AF04120A4EAF05120A93
:030AA2004ED2A48D
:010AA500222E
:0E0AB800C2A27F647E00120A2ED2A2020A2E73
:10032600120AB87F11120AC67F787E00120A2E7F43
:10033600B1120AA67F2C120AAB7F2D120AAB7FB22E
:10034600120AA67F2C120AAB7F2D120AAB7FB312BC
:100356000AA67F2C120AAB7F2D120AAB7F01120A66
:10036600AB7F2C120AAB7F2D120AAB7FB4120AC6E2
:100376007F07120AAB7FC0120AC67FA2120AAB7FA2
:1003860002120AAB7F84120AAB7FC1120AC67FC56E
:10039600120AAB7FC2120AC67F0A120AABE4FF1228
:1003A6000AAB7FC3120AC67F8A120AAB7F2A120AD9
:1003B600AB7FC4120AC67F8A120AAB7FEE120AAB63
:1003C6007FC5120AC67F0E120AAB7F36120AC67F97
:1003D600C0120AAB7FE0120AC67F0F120AAB7F1A61
:1003E600120AAB7F0F120AAB7F18120AAB7F2F12CD
:1003F6000AAB7F28120AAB7F20120AAB7F22120AB1
:10040600AB7F1F120AAB7F1B120AAB7F23120AAB0C
:100416007F37120AABE4FF120AAB7F07120AAB7FE3
:1004260002120AAB7F10120AAB7FE1120AC67F0FD7
:10043600120AAB7F1B120AAB7F0F120AAB7F171291
:100446000AAB7F33120AAB7F2C120AAB7F29120A42
:10045600AB7F2E120AAB7F30120AAB7F30120AAB8B
:100466007F39120AAB7F3F120AABE4FF120AAB7F59
:1004760007120AAB7F03120AAB7F10120AAB7F2A60
:10048600120AC6E4FF120AAB7F02120AABE4FF129D
:100496000AAB7F82120AAB7F2B120AC6E4FF120A4E
:1004A600AB7F03120AABE4FF120AAB7F83120AABDF
:1004B6007FF0120AA67FF6120AC6E4FF120AAB7F85
:0E04C6003A120AC67F05120AAB7F29020AC647
:10095C008F827F2A120AA6AF82EF2402FF120AAB03
:10096C007F01120AABEB2402FF120AAB7F2B120A97
:10097C00C67F02120AABED04FF120AAB7F02120A09
:0D098C00ABE52704FF120AAB7F2C020AC660
:040999008E4C8F4DA4
:10099D0075260075279F7B7F7A00E4FDFCFFFE1214
:1009AD00095CE4FBEBC394A0748094805019E4FAC5
:1009BD00EAC3948074809480500AAF4DAE4C120AF5
:0709CD008E0A80EC0B80DDB7
:0109D4002200
:1005F8008F468D478B487E00C3EF9480748094802B
:1006080040030206B47C00C3ED94A074809480403B
:10061800030206B4EF2BFFEE33CF24FFCF34FFFEE7
:10062800C3EF9480EE64809480400674809546F50C
:10063800487E00ED2549FFEE3CCF24FFCF34FFFE76
:10064800C3EF94A0EE64809480400674A09547F5AB
:1006580049AF467E00C007E547FD7C00E5462548D2
:10066800FFE433CF24FFFBEF34FFFAE5472549FFCA
:10067800E433CF24FFF527EF34FFF526D00712091E
:100688005C854947D3E547940074809480401D8574
:100698004846D3E546940074809480400BAF4BAE37
:0D06A8004A120A8E154680EA154780D822B6
:0808D1008F1D8A1E8B1FA90573
:1008D900E51D75F008A4F51DE975F008A4F9AF1D2B
:1008E9007E00FD7C00E51D2407FBE433FAE92407BB
:1008F900F527E433F52612095C7B40EBD3940074A9
:0F090900809480400AAF1FAE1E120A8E1B80EC36
:0109180022BC
:0807C0008F3C8D3D8A3E8B3F0A
:1007C800E4F543C3E5439404748094805051E53FB5
:1007D800540FF542E53EC4F854F0C868F53EE53FCD
:1007E800C4540F48F53F754408E4F545C3E54594FE
:1007F80004748094805024E54255446014E53C25F7
:1008080045FFE53D2403C39543FDAB41AA401208CB
:0F081800D1E544C313F544054580D1054380A4C1
:0108270022AE
:04088500AD38AF37A4
:02088900A907BD
:10088B007B287A00ED75F002A42BFBE5F03AFAE435
:10089B00FDEDC3940674809480502A8B828A83C3A7
:1008AB00740999FFE0FEA3E0A807088005CEC313E7
:1008BB00CE13D8F9FF74292DF8A60774022BFBE48D
:0508CB003AFA0D80CC9B
:0108D0002205
:04082800AD38AF3701
:02082C00A9071A
:10082E00750900750A28ED75F002A4AEF0250AF5DB
:10083E000AEE3509F509E4FDEDC394067480948043
:10084E00503474292DF8E6FF7E00C3740999FCEF2D
:10085E00A804088005C333CE33CED8F9FF850A82AB
:10086E00850983EEF0A3EFF07402250AF50AE4354C
:06087E0009F5090D80C21E
:010884002251
:080741008F1D8B1E8A1F892009
:10074900752100752200ED75F002A4AEF02522F5A1
:1007590022EE3521F521E4FDEDC3940674809480E1
:100769005054AB1EAA1FA920120A05543FFF7E0050
:10077900C37409951DFCEFA804088005C333CE3363
:10078900CED8F9FF852282852183C083C082E04EBD
:10079900FBA3E04FD082D083CBF0A3EBF07401250B
:1007A90020F520E4351FF51F74022522F522E435D2
:0607B90021F5210D80A2D4
:0107BF002217
:04000E00AD38AF3723
:060012008F098D0A8B0B23
:10001800751A29751B0EE4F50CAF0CEF3395E0FE4D
:10002800C3EF9406EE648094805013AF1A051AA8A3
:1000380007E6FF740E250CF8A607050C80DBE4F52F
:100048000CAF0CEF3395E0FEC3EF9406EE6480949A
:1000580080503CE50A2FFFE43EFEEF25E0FFEE333B
:10006800FE74002FF58274003EF583C37409950968
:10007800FFE0FEA3E0A807088005CEC313CE13D87F
:10008800F9543FFF7429250CF8A607050C80B2E542
:100098000B705BF50CAF0CEF3395E0FEC3EF9404E7
:1000A800EE64809480400302027874312FF8E625CC
:1000B800E0F51CC37404950C2429F8E6C313FF74F7
:1000C80032250CF8E65F60167B007A00790EAD0ADF
:1000D800AF09120741E4F5387537037F0122C3746D
:1000E80005950C2429F8E6451CF6050C80A7E50BB8
:1000F800FD7C0064017044F50CAF0CEF3395E0FE15
:10010800C3EF9404EE648094804003020278743153
:100118002FF8E6FF25E025E0F51CC37404950CFED6
:100128002429F8E6FB1313543F5F60037F01227410
:10013800292EF8E51C4BF6050C80BEED64024C70C8
:1001480037F50CAF0CEF3395E0FEC3EF9404EE6483
:10015800809480400302027874312FF8E6FFF51C82
:10016800C37404950C2429F8E6FE5F60037F01221E
:10017800E51C4EF6050C80CBE50B64036003020218
:1001880075853A8285398375F002E52F120A1EE4D7
:1001980093FE740193FF052FD3E52F940374809485
:1001A800804003E4F52FE4F50CAD0CED3395E0FC4D
:1001B800C3ED9404EC648094805020EF540FFDC389
:1001C8007403950C2431F8A605EEC4F854F0C868F9
:1001D800FEEFC4540F48FF050C80CEE4F50CAD0CBF
:1001E800ED3395E0FCC3ED9404EC64809480400307
:1001F80002027874312DF8E6FD25E0F51CC374047D
:10020800950CFC2429F8E6FBC3135D6053152F8574
:100218003A8285398375F002E52F120A1EE493FEAF
:10022800740193FFE4F50CE50CF5823395E0F58352
:10023800C3E5829404E583648094805020EF540FD2
:10024800FDC37403950C2431F8A605EEC4F854F0E8
:10025800C868FEEFC4540F48FF050C80CA7F01220E
:1002680074292CF8E51C4BF6050C0201E67F0122E7
:10027800751B0E751A29E4F50CAF0CEF3395E0FEEB
:10028800C3EF9406EE648094805018A81BE6FFA87C
:100298001AE66FFF7414250CF8A607051A051B0546
:1002A8000C80D6E4F50CAF0CEF3395E0FEC3EF9469
:1002B80006EE64809480506374142FF8E6605875D5
:1002C8001C20E4F50DAF0DEF3395E0FEC3EF940667
:1002D800EE6480948050407414250CF8E6551C6038
:1002E8002C740E250CF8E6551C6010E509250D0444
:1002F800FFE50A250CFDE4FBFA800FE509250D044E
:10030800FFE50A250CFD7B007AF81208D1E51CC32D
:0D03180013F51C050D80AE050C808B7F00D9
:0103250022B5
:1004D400D2B9758901758C3C758AB0D2AFD2A9D2D4
:1004E4008C75900FE4F508C3E50894147480948027
:1004F400502CE50825E02400F582E43400F58374EB
:10050400C0F0A37407F0E50825E02428F582E4345C
:1005140000F58374C0F0A37407F0050880C974FF64
:10052400900026F0A3F090004EF0A3F0120326D220
:10053400A57FF47E01120A2E120885E53B604B125A
:100544000885E4FB12000EEF7007120828053880B6
:1005540036E4F508C3E5089414748094805028E5C3
:100564000825E02400F582E43400F583E0FEA3E0EE
:10057400FFE50825E02428F582E43400F583EEF055
:10058400A3EFF0050880CDE4F53B20931AE5306035
:1005940016120A2A2093101208857B0112000EEF0E
:1005A4007005120828153720921AE5306016120AD1
:1005B4002A2092101208857B0212000EEF70051299
:1005C40008280537209118E5306014120A2A209172
:1005D4000E1208857B0312000EEF700312082830F8
:1005E400900302053F120A2A30900302053F753B2F
:0405F4000102053FBC
:03000B00020919CE
:10091900C0E0C0D075D000C006C007758C3C758A90
:10092900B00536AF367E00D3EF94167480948050AC
:10093900057530018003753000C3EF941EEE6480A5
:1009490094804006753600753B01D007D006D0D09B
:03095900D0E032B9
:030000000206B540
:0C06B500787FE4F6D8FD75814D0206FC4C
:100A0500BB010689828A83E0225002E722BBFE02EF
:090A1500E32289828A83E4932222
:0C0A1E00A42582F582E5F03583F58322E3
:1006C1000204D4E493A3F8E493A34003F68001F277
:1006D10008DFF48029E493A3F85407240CC8C3333A
:1006E100C4540F4420C8834004F456800146F6DF09
:1006F100E4800B0102040810204080900A70E47E1F
:10070100019360BCA3FF543F30E509541FFEE493FD
:10071100A360010ECF54C025E060A840B8E493A3C4
:10072100FAE493A3F8E493A3C8C582C8CAC583CAEF
:10073100F0A3C8C582C8CAC583CADFE9DEE780BEA7
:010A8D000068
:00000001FF
