:040A64007FF47E019C
:100A6800E4FDFCC3ED9FEC9E5015E4FBFA0BBB00C4
:0F0A7800010AEB64FA4A70F50DBD00010C80E431
:010A8700224C
:100A88007E08EED39400748094804015EF30E7041C
:100A9800D2918002C291C290D290EF25E0FF1E80D1
:010AA800E16C
:010AA900222A
:0A0AEE00C294C293120A88D2942227
:050AC200120AEE7F01A5
:0C0AC700E4F512C294D293120A88D29473
:010AD3002200
:040AAA00AD07AC06E2
:100AAE00E4F50AC294D293AF04120A88AF05120A73
:030ABE0088D29447
:010AC1002212
:0E0AD400C2927F647E00120A68D292020A6803
:10080000120AD47F11120AEE7F787E00120A687FE6
:10081000B1120AC27F2C120AC77F2D120AC77FB2FB
:10082000120AC27F2C120AC77F2D120AC77FB31289
:100830000AC27F2C120AC77F2D120AC77F01120A33
:10084000C77F2C120AC77F2D120AC77FB4120AEE87
:100850007F07120AC77FC0120AEE7FA2120AC77F63
:1008600002120AC77F84120AC77FC1120AEE7FC52F
:10087000120AC77FC2120AEE7F0A120AC7E4FF12E9
:100880000AC77FC3120AEE7F8A120AC77F2A120A9A
:10089000C77FC4120AEE7F8A120AC77FEE120AC708
:1008A0007FC5120AEE7F0E120AC77F36120AEE7F4C
:1008B000C0120AC77FE0120AEE7F0F120AC77F1A22
:1008C000120AC77F0F120AC77F18120AC77F2F129A
:1008D0000AC77F28120AC77F20120AC77F22120A7E
:1008E000C77F1F120AC77F1B120AC77F23120AC7BE
:1008F0007F37120AC7E4FF120AC77F07120AC77FB1
:1009000002120AC77F10120AC77FE1120AEE7F0F98
:10091000120AC77F1B120AC77F0F120AC77F17125E
:100920000AC77F33120AC77F2C120AC77F29120A0F
:10093000C77F2E120AC77F30120AC77F30120AC73C
:100940007F39120AC77F3F120AC7E4FF120AC77F26
:1009500007120AC77F03120AC77F10120AC77F2A2D
:10096000120AEEE4FF120AC77F02120AC7E4FF125E
:100970000AC77F82120AC77F2B120AEEE4FF120A0F
:10098000C77F03120AC7E4FF120AC77F83120AC790
:100990007FF0120AC27FF6120AEEE4FF120AC77F46
:0E09A0003A120AEE7F05120AC77F29020AEEFC
:1009AE008F827F2A120AC2AF82EF2402FF120AC779
:1009BE007F01120AC7EB2402FF120AC77F2B120A0D
:1009CE00EE7F02120AC7ED04FF120AC77F02120A57
:0D09DE00C7E51104FF120AC77F2C020AEEC4
:040A28008E088F099C
:100A2C0075100075119F7B7F7A00E4FDFCFFFE12B0
:100A3C0009AEE4FBEBC394A0748094805019E4FAE3
:100A4C00EAC3948074809480500AAF09AE08120AED
:070A5C00AA0A80EC0B80DD0B
:010A63002270
:1009EB0053B1FB43B204120800D2957F007EF8127C
:1009FB000A28120A647FE07E07120A28120A647F13
:100A0B001F1E120A28120A64E4FF1E120A28120A79
:0D0A1B006474FFFFFE120A28120A6480CEE8
:03000000020AE20F
:0C0AE200787FE4F6D8FD7581120209EB64
:00000001FF
